{
  "contractName": "Admin",
  "abi": [
    {
      "inputs": [],
      "payable": false,
      "stateMutability": "nonpayable",
      "type": "constructor"
    },
    {
      "constant": true,
      "inputs": [
        {
          "internalType": "bytes32",
          "name": "",
          "type": "bytes32"
        }
      ],
      "name": "getrecids",
      "outputs": [
        {
          "internalType": "uint256",
          "name": "",
          "type": "uint256"
        }
      ],
      "payable": false,
      "stateMutability": "view",
      "type": "function"
    },
    {
      "constant": true,
      "inputs": [],
      "name": "hashedaccess",
      "outputs": [
        {
          "internalType": "bytes32",
          "name": "",
          "type": "bytes32"
        }
      ],
      "payable": false,
      "stateMutability": "view",
      "type": "function"
    },
    {
      "constant": true,
      "inputs": [
        {
          "internalType": "uint256",
          "name": "",
          "type": "uint256"
        }
      ],
      "name": "licenseMans",
      "outputs": [
        {
          "internalType": "bool",
          "name": "",
          "type": "bool"
        }
      ],
      "payable": false,
      "stateMutability": "view",
      "type": "function"
    },
    {
      "constant": true,
      "inputs": [
        {
          "internalType": "uint256",
          "name": "",
          "type": "uint256"
        }
      ],
      "name": "licenseWho",
      "outputs": [
        {
          "internalType": "bool",
          "name": "",
          "type": "bool"
        }
      ],
      "payable": false,
      "stateMutability": "view",
      "type": "function"
    },
    {
      "constant": true,
      "inputs": [],
      "name": "recordCount",
      "outputs": [
        {
          "internalType": "uint256",
          "name": "",
          "type": "uint256"
        }
      ],
      "payable": false,
      "stateMutability": "view",
      "type": "function"
    },
    {
      "constant": true,
      "inputs": [
        {
          "internalType": "uint256",
          "name": "",
          "type": "uint256"
        }
      ],
      "name": "records",
      "outputs": [
        {
          "internalType": "uint256",
          "name": "Recid",
          "type": "uint256"
        },
        {
          "internalType": "address",
          "name": "manufacturer",
          "type": "address"
        },
        {
          "internalType": "uint256",
          "name": "med_id",
          "type": "uint256"
        },
        {
          "internalType": "uint256",
          "name": "quantity",
          "type": "uint256"
        },
        {
          "internalType": "bytes32",
          "name": "batchNo",
          "type": "bytes32"
        },
        {
          "internalType": "uint256",
          "name": "licenseMan",
          "type": "uint256"
        },
        {
          "internalType": "uint256",
          "name": "licenseWhole",
          "type": "uint256"
        },
        {
          "internalType": "string",
          "name": "medName",
          "type": "string"
        },
        {
          "internalType": "string",
          "name": "manDate",
          "type": "string"
        },
        {
          "internalType": "string",
          "name": "expDate",
          "type": "string"
        }
      ],
      "payable": false,
      "stateMutability": "view",
      "type": "function"
    },
    {
      "constant": false,
      "inputs": [
        {
          "internalType": "address",
          "name": "_manufacturer",
          "type": "address"
        },
        {
          "internalType": "uint256",
          "name": "_med_id",
          "type": "uint256"
        },
        {
          "internalType": "uint256",
          "name": "_quantity",
          "type": "uint256"
        },
        {
          "internalType": "uint256",
          "name": "_licenseMan",
          "type": "uint256"
        },
        {
          "internalType": "uint256",
          "name": "_licensewho",
          "type": "uint256"
        },
        {
          "internalType": "bytes32",
          "name": "_batchNo",
          "type": "bytes32"
        }
      ],
      "name": "addRecordToTable",
      "outputs": [],
      "payable": false,
      "stateMutability": "nonpayable",
      "type": "function"
    },
    {
      "constant": false,
      "inputs": [
        {
          "internalType": "address",
          "name": "_manufacturer",
          "type": "address"
        }
      ],
      "name": "sendManDetails",
      "outputs": [
        {
          "components": [
            {
              "internalType": "uint256",
              "name": "Recid",
              "type": "uint256"
            },
            {
              "internalType": "address",
              "name": "manufacturer",
              "type": "address"
            },
            {
              "internalType": "uint256",
              "name": "med_id",
              "type": "uint256"
            },
            {
              "internalType": "uint256",
              "name": "quantity",
              "type": "uint256"
            },
            {
              "internalType": "bytes32",
              "name": "batchNo",
              "type": "bytes32"
            },
            {
              "internalType": "uint256",
              "name": "licenseMan",
              "type": "uint256"
            },
            {
              "internalType": "uint256",
              "name": "licenseWhole",
              "type": "uint256"
            },
            {
              "internalType": "string",
              "name": "medName",
              "type": "string"
            },
            {
              "internalType": "string",
              "name": "manDate",
              "type": "string"
            },
            {
              "internalType": "string",
              "name": "expDate",
              "type": "string"
            }
          ],
          "internalType": "struct Admin.Record[]",
          "name": "outArray_",
          "type": "tuple[]"
        }
      ],
      "payable": false,
      "stateMutability": "nonpayable",
      "type": "function"
    },
    {
      "constant": false,
      "inputs": [
        {
          "internalType": "address",
          "name": "_manufacturer",
          "type": "address"
        },
        {
          "internalType": "uint256",
          "name": "_med_id",
          "type": "uint256"
        },
        {
          "internalType": "uint256",
          "name": "_quantity",
          "type": "uint256"
        },
        {
          "internalType": "uint256",
          "name": "_licenseMan",
          "type": "uint256"
        },
        {
          "internalType": "uint256",
          "name": "_licenseWho",
          "type": "uint256"
        },
        {
          "internalType": "string",
          "name": "_medName",
          "type": "string"
        },
        {
          "internalType": "string",
          "name": "_manDate",
          "type": "string"
        },
        {
          "internalType": "string",
          "name": "_expDate",
          "type": "string"
        }
      ],
      "name": "addManufactureRecord",
      "outputs": [
        {
          "internalType": "bytes32",
          "name": "",
          "type": "bytes32"
        }
      ],
      "payable": false,
      "stateMutability": "nonpayable",
      "type": "function"
    },
    {
      "constant": false,
      "inputs": [
        {
          "internalType": "address",
          "name": "_manufacturer",
          "type": "address"
        },
        {
          "internalType": "address",
          "name": "_wholesaler",
          "type": "address"
        },
        {
          "internalType": "uint256",
          "name": "_med_id",
          "type": "uint256"
        },
        {
          "internalType": "uint256",
          "name": "_quantity",
          "type": "uint256"
        },
        {
          "internalType": "uint256",
          "name": "_license",
          "type": "uint256"
        }
      ],
      "name": "WholesalerTransaction",
      "outputs": [
        {
          "internalType": "bytes32",
          "name": "",
          "type": "bytes32"
        }
      ],
      "payable": false,
      "stateMutability": "nonpayable",
      "type": "function"
    },
    {
      "constant": false,
      "inputs": [
        {
          "internalType": "address",
          "name": "_wholesaler",
          "type": "address"
        },
        {
          "internalType": "uint256",
          "name": "_med_id",
          "type": "uint256"
        },
        {
          "internalType": "bytes32",
          "name": "_batchNo",
          "type": "bytes32"
        }
      ],
      "name": "validate",
      "outputs": [
        {
          "internalType": "bool",
          "name": "",
          "type": "bool"
        }
      ],
      "payable": false,
      "stateMutability": "nonpayable",
      "type": "function"
    },
    {
      "constant": true,
      "inputs": [
        {
          "internalType": "uint256",
          "name": "_med_id",
          "type": "uint256"
        }
      ],
      "name": "getnumberofWholsaleDealers",
      "outputs": [
        {
          "internalType": "uint256",
          "name": "",
          "type": "uint256"
        }
      ],
      "payable": false,
      "stateMutability": "view",
      "type": "function"
    },
    {
      "constant": true,
      "inputs": [
        {
          "internalType": "uint256",
          "name": "_i",
          "type": "uint256"
        }
      ],
      "name": "getWholeSale",
      "outputs": [
        {
          "internalType": "uint256",
          "name": "",
          "type": "uint256"
        },
        {
          "internalType": "address",
          "name": "",
          "type": "address"
        },
        {
          "internalType": "uint256",
          "name": "",
          "type": "uint256"
        },
        {
          "internalType": "string",
          "name": "",
          "type": "string"
        }
      ],
      "payable": false,
      "stateMutability": "view",
      "type": "function"
    }
  ],
  "bytecode": "0x60806040526000805534801561001457600080fd5b506001600660006001815260200190815260200160002060006101000a81548160ff0219169083151502179055506001600660006002815260200190815260200160002060006101000a81548160ff0219169083151502179055506001600660006003815260200190815260200160002060006101000a81548160ff0219169083151502179055506001600760006001815260200190815260200160002060006101000a81548160ff0219169083151502179055506001600760006002815260200190815260200160002060006101000a81548160ff0219169083151502179055506001600760006003815260200190815260200160002060006101000a81548160ff021916908315150217905550611fa1806101326000396000f3fe608060405234801561001057600080fd5b50600436106100cf5760003560e01c8063829fa5151161008c578063900407bc11610066578063900407bc1461027c57806394d6fe761461029a578063a840e742146102ca578063dd227770146102fa576100cf565b8063829fa515146101e9578063884d975b1461021c57806388a6ff191461024c576100cf565b806305cab5c2146100d4578063255d50c5146101045780633446106714610134578063423e2b021461016d5780634e7bd8311461018957806371ec5e07146101b9575b600080fd5b6100ee60048036036100e991908101906117f1565b610318565b6040516100fb9190611cbf565b60405180910390f35b61011e600480360361011991908101906116c0565b61036c565b60405161012b9190611c44565b60405180910390f35b61014e600480360361014991908101906117f1565b6103fb565b6040516101649a99989796959493929190611d26565b60405180910390f35b61018760048036036101829190810190611637565b610637565b005b6101a3600480360361019e9190810190611571565b610a96565b6040516101b09190611c44565b60405180910390f35b6101d360048036036101ce91908101906115e8565b610c93565b6040516101e09190611c29565b60405180910390f35b61020360048036036101fe91908101906117f1565b610cfb565b6040516102139493929190611cda565b60405180910390f35b61023660048036036102319190810190611548565b610f65565b6040516102439190611c07565b60405180910390f35b610266600480360361026191908101906117f1565b6112af565b6040516102739190611c29565b60405180910390f35b6102846112cf565b6040516102919190611cbf565b60405180910390f35b6102b460048036036102af91908101906117f1565b6112d5565b6040516102c19190611c29565b60405180910390f35b6102e460048036036102df91908101906117c8565b6112f5565b6040516102f19190611cbf565b60405180910390f35b61030261130d565b60405161030f9190611c44565b60405180910390f35b600080600090506000600190505b600054811161036257600060056000838152602001908152602001600020600501541415610355576001820191505b8080600101915050610326565b5080915050919050565b60008042905060008d8d8d8460405160200161038b9493929190611bb9565b6040516020818303038152906040528051906020012090508686600391906103b4929190611313565b508888600291906103c6929190611313565b508484600491906103d8929190611313565b506103e78e8e8e8e8e86610637565b80925050509b9a5050505050505050505050565b60056020528060005260406000206000915090508060000154908060010160009054906101000a900473ffffffffffffffffffffffffffffffffffffffff1690806002015490806003015490806004015490806005015490806006015490806007018054600181600116156101000203166002900480601f0160208091040260200160405190810160405280929190818152602001828054600181600116156101000203166002900480156104f15780601f106104c6576101008083540402835291602001916104f1565b820191906000526020600020905b8154815290600101906020018083116104d457829003601f168201915b505050505090806008018054600181600116156101000203166002900480601f01602080910402602001604051908101604052809291908181526020018280546001816001161561010002031660029004801561058f5780601f106105645761010080835404028352916020019161058f565b820191906000526020600020905b81548152906001019060200180831161057257829003601f168201915b505050505090806009018054600181600116156101000203166002900480601f01602080910402602001604051908101604052809291908181526020018280546001816001161561010002031660029004801561062d5780601f106106025761010080835404028352916020019161062d565b820191906000526020600020905b81548152906001019060200180831161061057829003601f168201915b505050505090508a565b60008214156106ac57600115156006600085815260200190815260200160002060009054906101000a900460ff161515146106a7576040517f08c379a000000000000000000000000000000000000000000000000000000000815260040161069e90611c9f565b60405180910390fd5b610714565b600115156007600084815260200190815260200160002060009054906101000a900460ff16151514610713576040517f08c379a000000000000000000000000000000000000000000000000000000000815260040161070a90611c5f565b60405180910390fd5b5b6001600080828254019250508190555060405180610140016040528060005481526020018773ffffffffffffffffffffffffffffffffffffffff16815260200186815260200185815260200182815260200184815260200183815260200160028054600181600116156101000203166002900480601f0160208091040260200160405190810160405280929190818152602001828054600181600116156101000203166002900480156108085780601f106107dd57610100808354040283529160200191610808565b820191906000526020600020905b8154815290600101906020018083116107eb57829003601f168201915b5050505050815260200160038054600181600116156101000203166002900480601f0160208091040260200160405190810160405280929190818152602001828054600181600116156101000203166002900480156108a85780601f1061087d576101008083540402835291602001916108a8565b820191906000526020600020905b81548152906001019060200180831161088b57829003601f168201915b5050505050815260200160048054600181600116156101000203166002900480601f0160208091040260200160405190810160405280929190818152602001828054600181600116156101000203166002900480156109485780601f1061091d57610100808354040283529160200191610948565b820191906000526020600020905b81548152906001019060200180831161092b57829003601f168201915b505050505081525060056000805481526020019081526020016000206000820151816000015560208201518160010160006101000a81548173ffffffffffffffffffffffffffffffffffffffff021916908373ffffffffffffffffffffffffffffffffffffffff16021790555060408201518160020155606082015181600301556080820151816004015560a0820151816005015560c0820151816006015560e0820151816007019080519060200190610a03929190611393565b50610100820151816008019080519060200190610a21929190611393565b50610120820151816009019080519060200190610a3f929190611393565b509050508585604051602001610a56929190611b8d565b6040516020818303038152906040528051906020012060018190555060005460086000600154815260200190815260200160002081905550505050505050565b60008584604051602001610aab929190611b8d565b60405160208183030381529060405280519060200120600181905550600060086000600154815260200190815260200160002054905060006005600083815260200190815260200160002060030154905084811015610b3f576040517f08c379a0000000000000000000000000000000000000000000000000000000008152600401610b3690611c7f565b60405180910390fd5b8460056000600860006001548152602001908152602001600020548152602001908152602001600020600301600082825403925050819055506005600083815260200190815260200160002060080160039080546001816001161561010002031660029004610baf929190611413565b506005600083815260200190815260200160002060070160029080546001816001161561010002031660029004610be7929190611413565b506005600083815260200190815260200160002060090160049080546001816001161561010002031660029004610c1f929190611413565b50610c5a8787876000886005600060086000600154815260200190815260200160002054815260200190815260200160002060040154610637565b60056000600860006001548152602001908152602001600020548152602001908152602001600020600401549250505095945050505050565b60008383604051602001610ca8929190611b8d565b604051602081830303815290604052805190602001206001819055508160056000600860006001548152602001908152602001600020548152602001908152602001600020600401541490509392505050565b6000806000606060008590505b6000548111610e4f576000600560008381526020019081526020016000206006015414610e425760016005600083815260200190815260200160002060010160009054906101000a900473ffffffffffffffffffffffffffffffffffffffff16600560008481526020019081526020016000206003015460056000858152602001908152602001600020600701839350808054600181600116156101000203166002900480601f016020809104026020016040519081016040528092919081815260200182805460018160011615610100020316600290048015610e2d5780601f10610e0257610100808354040283529160200191610e2d565b820191906000526020600020905b815481529060010190602001808311610e1057829003601f168201915b50505050509050945094509450945050610f5e565b8080600101915050610d08565b5060006005600080815260200190815260200160002060010160009054906101000a900473ffffffffffffffffffffffffffffffffffffffff16600560008081526020019081526020016000206003015460056000808152602001908152602001600020600701839350808054600181600116156101000203166002900480601f016020809104026020016040519081016040528092919081815260200182805460018160011615610100020316600290048015610f4e5780601f10610f2357610100808354040283529160200191610f4e565b820191906000526020600020905b815481529060010190602001808311610f3157829003601f168201915b5050505050905093509350935093505b9193509193565b6060600080905060008090505b6000548110156112a8578373ffffffffffffffffffffffffffffffffffffffff166005600083815260200190815260200160002060010160009054906101000a900473ffffffffffffffffffffffffffffffffffffffff1673ffffffffffffffffffffffffffffffffffffffff16141561129b576005600082815260200190815260200160002060405180610140016040529081600082015481526020016001820160009054906101000a900473ffffffffffffffffffffffffffffffffffffffff1673ffffffffffffffffffffffffffffffffffffffff1673ffffffffffffffffffffffffffffffffffffffff1681526020016002820154815260200160038201548152602001600482015481526020016005820154815260200160068201548152602001600782018054600181600116156101000203166002900480601f0160208091040260200160405190810160405280929190818152602001828054600181600116156101000203166002900480156111305780601f1061110557610100808354040283529160200191611130565b820191906000526020600020905b81548152906001019060200180831161111357829003601f168201915b50505050508152602001600882018054600181600116156101000203166002900480601f0160208091040260200160405190810160405280929190818152602001828054600181600116156101000203166002900480156111d25780601f106111a7576101008083540402835291602001916111d2565b820191906000526020600020905b8154815290600101906020018083116111b557829003601f168201915b50505050508152602001600982018054600181600116156101000203166002900480601f0160208091040260200160405190810160405280929190818152602001828054600181600116156101000203166002900480156112745780601f1061124957610100808354040283529160200191611274565b820191906000526020600020905b81548152906001019060200180831161125757829003601f168201915b50505050508152505083838151811061128957fe5b60200260200101819052506001820191505b8080600101915050610f72565b5050919050565b60076020528060005260406000206000915054906101000a900460ff1681565b60005481565b60066020528060005260406000206000915054906101000a900460ff1681565b60086020528060005260406000206000915090505481565b60015481565b828054600181600116156101000203166002900490600052602060002090601f016020900481019282601f1061135457803560ff1916838001178555611382565b82800160010185558215611382579182015b82811115611381578235825591602001919060010190611366565b5b50905061138f919061149a565b5090565b828054600181600116156101000203166002900490600052602060002090601f016020900481019282601f106113d457805160ff1916838001178555611402565b82800160010185558215611402579182015b828111156114015782518255916020019190600101906113e6565b5b50905061140f919061149a565b5090565b828054600181600116156101000203166002900490600052602060002090601f016020900481019282601f1061144c5780548555611489565b8280016001018555821561148957600052602060002091601f016020900482015b8281111561148857825482559160010191906001019061146d565b5b509050611496919061149a565b5090565b6114bc91905b808211156114b85760008160009055506001016114a0565b5090565b90565b6000813590506114ce81611f19565b92915050565b6000813590506114e381611f30565b92915050565b60008083601f8401126114fb57600080fd5b8235905067ffffffffffffffff81111561151457600080fd5b60208301915083600182028301111561152c57600080fd5b9250929050565b60008135905061154281611f47565b92915050565b60006020828403121561155a57600080fd5b6000611568848285016114bf565b91505092915050565b600080600080600060a0868803121561158957600080fd5b6000611597888289016114bf565b95505060206115a8888289016114bf565b94505060406115b988828901611533565b93505060606115ca88828901611533565b92505060806115db88828901611533565b9150509295509295909350565b6000806000606084860312156115fd57600080fd5b600061160b868287016114bf565b935050602061161c86828701611533565b925050604061162d868287016114d4565b9150509250925092565b60008060008060008060c0878903121561165057600080fd5b600061165e89828a016114bf565b965050602061166f89828a01611533565b955050604061168089828a01611533565b945050606061169189828a01611533565b93505060806116a289828a01611533565b92505060a06116b389828a016114d4565b9150509295509295509295565b60008060008060008060008060008060006101008c8e0312156116e257600080fd5b60006116f08e828f016114bf565b9b505060206117018e828f01611533565b9a505060406117128e828f01611533565b99505060606117238e828f01611533565b98505060806117348e828f01611533565b97505060a08c013567ffffffffffffffff81111561175157600080fd5b61175d8e828f016114e9565b965096505060c08c013567ffffffffffffffff81111561177c57600080fd5b6117888e828f016114e9565b945094505060e08c013567ffffffffffffffff8111156117a757600080fd5b6117b38e828f016114e9565b92509250509295989b509295989b9093969950565b6000602082840312156117da57600080fd5b60006117e8848285016114d4565b91505092915050565b60006020828403121561180357600080fd5b600061181184828501611533565b91505092915050565b60006118268383611a70565b905092915050565b61183781611e48565b82525050565b61184681611e48565b82525050565b61185d61185882611e48565b611ecd565b82525050565b600061186e82611de7565b6118788185611e15565b93508360208202850161188a85611dd7565b8060005b858110156118c657848403895281516118a7858261181a565b94506118b283611e08565b925060208a0199505060018101905061188e565b50829750879550505050505092915050565b6118e181611e5a565b82525050565b6118f081611e66565b82525050565b6118ff81611e66565b82525050565b600061191082611dfd565b61191a8185611e37565b935061192a818560208601611e9a565b61193381611efb565b840191505092915050565b600061194982611df2565b6119538185611e26565b9350611963818560208601611e9a565b61196c81611efb565b840191505092915050565b600061198282611df2565b61198c8185611e37565b935061199c818560208601611e9a565b6119a581611efb565b840191505092915050565b60006119bd601a83611e37565b91507f496e76616c69642057686f6c6573616c6572204c6963656e73650000000000006000830152602082019050919050565b60006119fd601a83611e37565b91507f4d65646963696e657320617265206f7574206f662073746f636b0000000000006000830152602082019050919050565b6000611a3d601b83611e37565b91507f496e76616c6964204d616e7566616374757265204c6963656e736500000000006000830152602082019050919050565b600061014083016000830151611a896000860182611b58565b506020830151611a9c602086018261182e565b506040830151611aaf6040860182611b58565b506060830151611ac26060860182611b58565b506080830151611ad560808601826118e7565b5060a0830151611ae860a0860182611b58565b5060c0830151611afb60c0860182611b58565b5060e083015184820360e0860152611b13828261193e565b915050610100830151848203610100860152611b2f828261193e565b915050610120830151848203610120860152611b4b828261193e565b9150508091505092915050565b611b6181611e90565b82525050565b611b7081611e90565b82525050565b611b87611b8282611e90565b611ef1565b82525050565b6000611b99828561184c565b601482019150611ba98284611b76565b6020820191508190509392505050565b6000611bc5828761184c565b601482019150611bd58286611b76565b602082019150611be58285611b76565b602082019150611bf58284611b76565b60208201915081905095945050505050565b60006020820190508181036000830152611c218184611863565b905092915050565b6000602082019050611c3e60008301846118d8565b92915050565b6000602082019050611c5960008301846118f6565b92915050565b60006020820190508181036000830152611c78816119b0565b9050919050565b60006020820190508181036000830152611c98816119f0565b9050919050565b60006020820190508181036000830152611cb881611a30565b9050919050565b6000602082019050611cd46000830184611b67565b92915050565b6000608082019050611cef6000830187611b67565b611cfc602083018661183d565b611d096040830185611b67565b8181036060830152611d1b8184611905565b905095945050505050565b600061014082019050611d3c600083018d611b67565b611d49602083018c61183d565b611d56604083018b611b67565b611d63606083018a611b67565b611d7060808301896118f6565b611d7d60a0830188611b67565b611d8a60c0830187611b67565b81810360e0830152611d9c8186611977565b9050818103610100830152611db18185611977565b9050818103610120830152611dc68184611977565b90509b9a5050505050505050505050565b6000819050602082019050919050565b600081519050919050565b600081519050919050565b600081519050919050565b6000602082019050919050565b600082825260208201905092915050565b600082825260208201905092915050565b600082825260208201905092915050565b6000611e5382611e70565b9050919050565b60008115159050919050565b6000819050919050565b600073ffffffffffffffffffffffffffffffffffffffff82169050919050565b6000819050919050565b60005b83811015611eb8578082015181840152602081019050611e9d565b83811115611ec7576000848401525b50505050565b6000611ed882611edf565b9050919050565b6000611eea82611f0c565b9050919050565b6000819050919050565b6000601f19601f8301169050919050565b60008160601b9050919050565b611f2281611e48565b8114611f2d57600080fd5b50565b611f3981611e66565b8114611f4457600080fd5b50565b611f5081611e90565b8114611f5b57600080fd5b5056fea365627a7a723158208f746d5f109dae64aea0634b3ec5255e651508da5f31651fee8667f85fef30a06c6578706572696d656e74616cf564736f6c634300050c0040",
  "source": "pragma solidity ^0.5.0;\npragma experimental ABIEncoderV2;\n\ncontract Admin{\n    uint public recordCount = 0;\n    bytes32 public hashedaccess;\n    string medName;\n    string manDate;\n    string expDate;\n    struct Record {\n        uint Recid;\n        address manufacturer;\n        uint med_id;\n        uint quantity;\n        bytes32 batchNo;\n        uint licenseMan;\n        uint licenseWhole;\n        string medName;\n        string manDate;\n        string expDate;\n    }\n\n    mapping(uint => Record) public records;\n    mapping(uint => bool) public licenseMans;\n    mapping(uint => bool) public licenseWho;\n    mapping(bytes32 => uint) public getrecids;\n    constructor() public {\n        licenseMans[1] = true;\n        licenseMans[2] = true;\n        licenseMans[3] = true;\n        \n        licenseWho[1] = true;\n        licenseWho[2] = true;\n        licenseWho[3] = true;\n    }\n\n    function addRecordToTable(address _manufacturer,uint _med_id,uint _quantity,uint _licenseMan,uint _licensewho,bytes32 _batchNo) public{\n        if(_licensewho == 0){\n        require(licenseMans[_licenseMan] == true, \"Invalid Manufacture License\");}\n        else{\n        require(licenseWho[_licensewho] == true, \"Invalid Wholesaler License\");\n        }//recordCount = recordCount + 1;\n        recordCount += 1;\n        records[recordCount] = Record(recordCount,_manufacturer,_med_id,_quantity,_batchNo,_licenseMan,_licensewho,medName,manDate,expDate);\n        hashedaccess = keccak256(abi.encodePacked(_manufacturer,_med_id));\n        getrecids[hashedaccess] = recordCount;\n    }\n\n    function sendManDetails(address _manufacturer) public returns (Record[] memory outArray_){\n        uint j = 0;\n        for (uint index = 0; index < recordCount; index++) {\n            if(records[index].manufacturer == _manufacturer){\n                outArray_[j] = records[index];\n                j = j+1;\n            }\n        }\n    }\n\n    function addManufactureRecord(address _manufacturer,uint _med_id,uint _quantity,uint _licenseMan,uint _licenseWho, string calldata _medName,string calldata _manDate,string calldata _expDate) external returns(bytes32){\n        uint tempSecretx = block.timestamp;\n        bytes32 batchNo = keccak256(abi.encodePacked(_manufacturer,_med_id,_quantity, tempSecretx));\n        manDate = _manDate;\n        medName = _medName;\n        expDate = _expDate;\n        addRecordToTable(_manufacturer,_med_id,_quantity,_licenseMan,_licenseWho,batchNo);\n        return batchNo;\n    }\n    function WholesalerTransaction(address _manufacturer,address _wholesaler,uint _med_id,uint _quantity,uint _license) external returns(bytes32){\n        hashedaccess = keccak256(abi.encodePacked(_manufacturer,_med_id));\n        \n        uint test1 = getrecids[hashedaccess];\n        uint test = records[test1].quantity;\n        require( test >= _quantity,\"Medicines are out of stock\");\n        records[getrecids[hashedaccess]].quantity -= _quantity;\n        manDate = records[test1].manDate;\n        medName = records[test1].medName;\n        expDate = records[test1].expDate;\n        addRecordToTable(_wholesaler,_med_id,_quantity,0,_license,records[getrecids[hashedaccess]].batchNo);\n        return records[getrecids[hashedaccess]].batchNo ;\n    }\n    \n    function validate(address _wholesaler,uint _med_id,bytes32 _batchNo) external returns(bool){\n        hashedaccess = keccak256(abi.encodePacked(_wholesaler,_med_id));\n        return records[getrecids[hashedaccess]].batchNo == _batchNo ; \n    }\n    \n    function getnumberofWholsaleDealers(uint _med_id) external view returns(uint){\n        uint num=0;\n        for(uint i=1;i<=recordCount;i++){\n            if(records[i].licenseMan == 0)\n            num=num+1;\n        }\n        return num;\n    }\n    \n    function getWholeSale(uint _i) external view returns(uint,address,uint,string memory){\n        for(uint i=_i;i<=recordCount;i++){\n            if(records[i].licenseWhole != 0)\n            return (1,records[i].manufacturer,records[i].quantity,records[i].medName);\n        }\n        return(0,records[0].manufacturer,records[0].quantity,records[0].medName);\n    }\n}\n\n\ncontract Manufacture{\n    string public medicines;\n    address public Owner;\n    address Adminaddress;\n    uint license;\n    constructor(address _admin,uint _licenseMan) public {\n        medicines = \"Paracetamol\";\n        Adminaddress = _admin;\n        Owner = msg.sender;\n        license = _licenseMan;\n    }\n    modifier onlyOwner() {\n        require(msg.sender == Owner, \"Only owner can call this function\");\n        _;\n    }\n\n    function addMedicineRecord(uint _med_id,uint _quantity,string memory _medName,string memory _manDate,string memory _expDate) public onlyOwner returns(bytes32){\n    Admin adminConnect = Admin(Adminaddress);\n    bytes32 batchNo = adminConnect.addManufactureRecord(msg.sender,_med_id,_quantity,license,0,_medName,_manDate,_expDate);\n    return batchNo;\n    }\n    \n    function sellMedicine (address _wholesaler, uint _med_id, uint _quantity, uint _license) external returns(bytes32){\n        Admin adminConnect = Admin (Adminaddress);\n        return adminConnect.WholesalerTransaction(Owner,_wholesaler,_med_id,_quantity,_license);\n        \n    }\n    \n    \n}\n\ncontract Wholesaler{\n    string public medicines;\n    address public Owner;\n    address Adminaddress;\n    uint license;\n    constructor(address _admin, uint _license) public{\n        medicines = \"Paracetamol\";\n        Adminaddress = _admin;\n        Owner = msg.sender;\n        license = _license;\n    }\n    modifier onlyOwner() {\n        require(msg.sender == Owner, \"Only owner can call this function\");\n        _;\n    }\n    function validate(uint _med_id,bytes32 _batchNo) private {\n        Admin adm = Admin(Adminaddress);\n        require(adm.validate(msg.sender,_med_id,_batchNo),\"Unsuccessfull Transaction\");\n    }\n    function buyMedicine (address _manufacturer , uint _med_id,uint _quantity) public onlyOwner{\n        Manufacture Man = Manufacture(_manufacturer);\n        bytes32 hashedaccess = Man.sellMedicine(msg.sender,_med_id,_quantity,license);\n        validate(_med_id,hashedaccess);\n    }\n}\n\ncontract Customer{\n    address public Owner;\n    address Adminaddress;\n    uint i=1;\n    constructor(address _admin) public{\n        Adminaddress = _admin;\n        Owner = msg.sender;\n    }\n    modifier onlyOwner() {\n        require(msg.sender == Owner, \"Only owner can call this function\");\n        _;\n    }\n    \n    event wholesalerFound(address _wholesaler,uint _quantity,string medName);\n    \n    function getMedicines(uint _med_id) public onlyOwner{\n        Admin adm = Admin(Adminaddress);\n        uint num = adm.getnumberofWholsaleDealers(_med_id);\n        while(i<=num){\n            (uint a,address b,uint c,string memory d) = adm.getWholeSale(i);\n            if(a==0)\n            break;\n            i = i+1;\n            emit wholesalerFound(b,c,d);\n            \n        }\n        i=1;\n        \n    }\n}\n",
  "sourcePath": "/home/abhishikta/7th_sem/webtech/medchain/contracts/SupplyChain.sol",
  "compiler": {
    "name": "solc",
    "version": "0.5.12+commit.7709ece9.Emscripten.clang"
  },
  "schemaVersion": "3.0.19",
  "updatedAt": "2019-11-20T17:31:04.831Z",
  "devdoc": {
    "methods": {}
  },
  "userdoc": {
    "methods": {}
  }
}