{
  "contractName": "Admin",
  "abi": [
    {
      "inputs": [],
      "payable": false,
      "stateMutability": "nonpayable",
      "type": "constructor"
    },
    {
      "constant": true,
      "inputs": [
        {
          "internalType": "bytes32",
          "name": "",
          "type": "bytes32"
        }
      ],
      "name": "getrecids",
      "outputs": [
        {
          "internalType": "uint256",
          "name": "",
          "type": "uint256"
        }
      ],
      "payable": false,
      "stateMutability": "view",
      "type": "function"
    },
    {
      "constant": true,
      "inputs": [],
      "name": "hashedaccess",
      "outputs": [
        {
          "internalType": "bytes32",
          "name": "",
          "type": "bytes32"
        }
      ],
      "payable": false,
      "stateMutability": "view",
      "type": "function"
    },
    {
      "constant": true,
      "inputs": [
        {
          "internalType": "uint256",
          "name": "",
          "type": "uint256"
        }
      ],
      "name": "licenseMans",
      "outputs": [
        {
          "internalType": "bool",
          "name": "",
          "type": "bool"
        }
      ],
      "payable": false,
      "stateMutability": "view",
      "type": "function"
    },
    {
      "constant": true,
      "inputs": [
        {
          "internalType": "uint256",
          "name": "",
          "type": "uint256"
        }
      ],
      "name": "licenseWho",
      "outputs": [
        {
          "internalType": "bool",
          "name": "",
          "type": "bool"
        }
      ],
      "payable": false,
      "stateMutability": "view",
      "type": "function"
    },
    {
      "constant": true,
      "inputs": [],
      "name": "recordCount",
      "outputs": [
        {
          "internalType": "uint256",
          "name": "",
          "type": "uint256"
        }
      ],
      "payable": false,
      "stateMutability": "view",
      "type": "function"
    },
    {
      "constant": true,
      "inputs": [
        {
          "internalType": "uint256",
          "name": "",
          "type": "uint256"
        }
      ],
      "name": "records",
      "outputs": [
        {
          "internalType": "uint256",
          "name": "Recid",
          "type": "uint256"
        },
        {
          "internalType": "address",
          "name": "manufacturer",
          "type": "address"
        },
        {
          "internalType": "string",
          "name": "man_name",
          "type": "string"
        },
        {
          "internalType": "uint256",
          "name": "med_id",
          "type": "uint256"
        },
        {
          "internalType": "uint256",
          "name": "quantity",
          "type": "uint256"
        },
        {
          "internalType": "bytes32",
          "name": "batchNo",
          "type": "bytes32"
        },
        {
          "internalType": "uint256",
          "name": "licenseMan",
          "type": "uint256"
        },
        {
          "internalType": "string",
          "name": "medName",
          "type": "string"
        },
        {
          "internalType": "string",
          "name": "manDate",
          "type": "string"
        },
        {
          "internalType": "string",
          "name": "expDate",
          "type": "string"
        }
      ],
      "payable": false,
      "stateMutability": "view",
      "type": "function"
    },
    {
      "constant": false,
      "inputs": [
        {
          "internalType": "address",
          "name": "_manufacturer",
          "type": "address"
        },
        {
          "internalType": "string",
          "name": "_man_name",
          "type": "string"
        },
        {
          "internalType": "uint256",
          "name": "_med_id",
          "type": "uint256"
        },
        {
          "internalType": "uint256",
          "name": "_quantity",
          "type": "uint256"
        },
        {
          "internalType": "uint256",
          "name": "_licenseMan",
          "type": "uint256"
        },
        {
          "internalType": "bytes32",
          "name": "_batchNo",
          "type": "bytes32"
        }
      ],
      "name": "addRecordToTable",
      "outputs": [],
      "payable": false,
      "stateMutability": "nonpayable",
      "type": "function"
    },
    {
      "constant": false,
      "inputs": [
        {
          "internalType": "address",
          "name": "_manufacturer",
          "type": "address"
        },
        {
          "internalType": "string",
          "name": "_man_name",
          "type": "string"
        },
        {
          "internalType": "uint256",
          "name": "_med_id",
          "type": "uint256"
        },
        {
          "internalType": "uint256",
          "name": "_quantity",
          "type": "uint256"
        },
        {
          "internalType": "uint256",
          "name": "_licenseMan",
          "type": "uint256"
        },
        {
          "internalType": "string",
          "name": "_medName",
          "type": "string"
        },
        {
          "internalType": "string",
          "name": "_manDate",
          "type": "string"
        },
        {
          "internalType": "string",
          "name": "_expDate",
          "type": "string"
        }
      ],
      "name": "addManufactureRecord",
      "outputs": [
        {
          "internalType": "bytes32",
          "name": "",
          "type": "bytes32"
        }
      ],
      "payable": false,
      "stateMutability": "nonpayable",
      "type": "function"
    },
    {
      "constant": false,
      "inputs": [
        {
          "internalType": "address",
          "name": "_manufacturer",
          "type": "address"
        },
        {
          "internalType": "address",
          "name": "_wholesaler",
          "type": "address"
        },
        {
          "internalType": "string",
          "name": "_med_name",
          "type": "string"
        },
        {
          "internalType": "uint256",
          "name": "_quantity",
          "type": "uint256"
        },
        {
          "internalType": "uint256",
          "name": "_license",
          "type": "uint256"
        }
      ],
      "name": "WholesalerTransaction",
      "outputs": [
        {
          "internalType": "bytes32",
          "name": "",
          "type": "bytes32"
        }
      ],
      "payable": false,
      "stateMutability": "nonpayable",
      "type": "function"
    },
    {
      "constant": false,
      "inputs": [
        {
          "internalType": "address",
          "name": "_wholesaler",
          "type": "address"
        },
        {
          "internalType": "string",
          "name": "_med_name",
          "type": "string"
        },
        {
          "internalType": "bytes32",
          "name": "_batchNo",
          "type": "bytes32"
        }
      ],
      "name": "validate",
      "outputs": [
        {
          "internalType": "bool",
          "name": "",
          "type": "bool"
        }
      ],
      "payable": false,
      "stateMutability": "nonpayable",
      "type": "function"
    }
  ],
  "bytecode": "0x60806040526000805534801561001457600080fd5b506001600660006001815260200190815260200160002060006101000a81548160ff0219169083151502179055506001600660006002815260200190815260200160002060006101000a81548160ff0219169083151502179055506001600660006003815260200190815260200160002060006101000a81548160ff0219169083151502179055506001600760006001815260200190815260200160002060006101000a81548160ff0219169083151502179055506001600760006002815260200190815260200160002060006101000a81548160ff0219169083151502179055506001600760006003815260200190815260200160002060006101000a81548160ff02191690831515021790555061172b806101326000396000f3fe608060405234801561001057600080fd5b506004361061009e5760003560e01c8063900407bc11610066578063900407bc146106b357806394d6fe76146106d1578063a840e74214610717578063d6b5bb3314610759578063dd2277701461083a5761009e565b806334461067146100a35780635972f7ce146102e45780636b1c5920146103e757806388a6ff19146105b25780638a9392c0146105f8575b600080fd5b6100cf600480360360208110156100b957600080fd5b8101908080359060200190929190505050610858565b604051808b81526020018a73ffffffffffffffffffffffffffffffffffffffff1673ffffffffffffffffffffffffffffffffffffffff1681526020018060200189815260200188815260200187815260200186815260200180602001806020018060200185810385528d818151815260200191508051906020019080838360005b8381101561016b578082015181840152602081019050610150565b50505050905090810190601f1680156101985780820380516001836020036101000a031916815260200191505b50858103845288818151815260200191508051906020019080838360005b838110156101d15780820151818401526020810190506101b6565b50505050905090810190601f1680156101fe5780820380516001836020036101000a031916815260200191505b50858103835287818151815260200191508051906020019080838360005b8381101561023757808201518184015260208101905061021c565b50505050905090810190601f1680156102645780820380516001836020036101000a031916815260200191505b50858103825286818151815260200191508051906020019080838360005b8381101561029d578082015181840152602081019050610282565b50505050905090810190601f1680156102ca5780820380516001836020036101000a031916815260200191505b509e50505050505050505050505050505060405180910390f35b6103e5600480360360c08110156102fa57600080fd5b81019080803573ffffffffffffffffffffffffffffffffffffffff1690602001909291908035906020019064010000000081111561033757600080fd5b82018360208201111561034957600080fd5b8035906020019184600183028401116401000000008311171561036b57600080fd5b91908080601f016020809104026020016040519081016040528093929190818152602001838380828437600081840152601f19601f82011690508083019250505050505050919291929080359060200190929190803590602001909291908035906020019092919080359060200190929190505050610b2c565b005b61059c60048036036101008110156103fe57600080fd5b81019080803573ffffffffffffffffffffffffffffffffffffffff1690602001909291908035906020019064010000000081111561043b57600080fd5b82018360208201111561044d57600080fd5b8035906020019184600183028401116401000000008311171561046f57600080fd5b9091929391929390803590602001909291908035906020019092919080359060200190929190803590602001906401000000008111156104ae57600080fd5b8201836020820111156104c057600080fd5b803590602001918460018302840111640100000000831117156104e257600080fd5b90919293919293908035906020019064010000000081111561050357600080fd5b82018360208201111561051557600080fd5b8035906020019184600183028401116401000000008311171561053757600080fd5b90919293919293908035906020019064010000000081111561055857600080fd5b82018360208201111561056a57600080fd5b8035906020019184600183028401116401000000008311171561058c57600080fd5b9091929391929390505050611071565b6040518082815260200191505060405180910390f35b6105de600480360360208110156105c857600080fd5b8101908080359060200190929190505050611186565b604051808215151515815260200191505060405180910390f35b6106996004803603606081101561060e57600080fd5b81019080803573ffffffffffffffffffffffffffffffffffffffff1690602001909291908035906020019064010000000081111561064b57600080fd5b82018360208201111561065d57600080fd5b8035906020019184600183028401116401000000008311171561067f57600080fd5b9091929391929390803590602001909291905050506111a6565b604051808215151515815260200191505060405180910390f35b6106bb61124d565b6040518082815260200191505060405180910390f35b6106fd600480360360208110156106e757600080fd5b8101908080359060200190929190505050611253565b604051808215151515815260200191505060405180910390f35b6107436004803603602081101561072d57600080fd5b8101908080359060200190929190505050611273565b6040518082815260200191505060405180910390f35b610824600480360360a081101561076f57600080fd5b81019080803573ffffffffffffffffffffffffffffffffffffffff169060200190929190803573ffffffffffffffffffffffffffffffffffffffff169060200190929190803590602001906401000000008111156107cc57600080fd5b8201836020820111156107de57600080fd5b8035906020019184600183028401116401000000008311171561080057600080fd5b9091929391929390803590602001909291908035906020019092919050505061128b565b6040518082815260200191505060405180910390f35b610842611544565b6040518082815260200191505060405180910390f35b60056020528060005260406000206000915090508060000154908060010160009054906101000a900473ffffffffffffffffffffffffffffffffffffffff1690806002018054600181600116156101000203166002900480601f0160208091040260200160405190810160405280929190818152602001828054600181600116156101000203166002900480156109305780601f1061090557610100808354040283529160200191610930565b820191906000526020600020905b81548152906001019060200180831161091357829003601f168201915b505050505090806003015490806004015490806005015490806006015490806007018054600181600116156101000203166002900480601f0160208091040260200160405190810160405280929190818152602001828054600181600116156101000203166002900480156109e65780601f106109bb576101008083540402835291602001916109e6565b820191906000526020600020905b8154815290600101906020018083116109c957829003601f168201915b505050505090806008018054600181600116156101000203166002900480601f016020809104026020016040519081016040528092919081815260200182805460018160011615610100020316600290048015610a845780601f10610a5957610100808354040283529160200191610a84565b820191906000526020600020905b815481529060010190602001808311610a6757829003601f168201915b505050505090806009018054600181600116156101000203166002900480601f016020809104026020016040519081016040528092919081815260200182805460018160011615610100020316600290048015610b225780601f10610af757610100808354040283529160200191610b22565b820191906000526020600020905b815481529060010190602001808311610b0557829003601f168201915b505050505090508a565b600115156006600084815260200190815260200160002060009054906101000a900460ff16151514610bc6576040517f08c379a000000000000000000000000000000000000000000000000000000000815260040180806020018281038252601b8152602001807f496e76616c6964204d616e7566616374757265204c6963656e7365000000000081525060200191505060405180910390fd5b856002604051602001808373ffffffffffffffffffffffffffffffffffffffff1673ffffffffffffffffffffffffffffffffffffffff1660601b815260140182805460018160011615610100020316600290048015610c5c5780601f10610c3a576101008083540402835291820191610c5c565b820191906000526020600020905b815481529060010190602001808311610c48575b505092505050604051602081830303815290604052805190602001206001819055506000600860006001548152602001908152602001600020541415610fff576001600080828254019250508190555060405180610140016040528060005481526020018773ffffffffffffffffffffffffffffffffffffffff16815260200186815260200185815260200184815260200182815260200183815260200160028054600181600116156101000203166002900480601f016020809104026020016040519081016040528092919081815260200182805460018160011615610100020316600290048015610d905780601f10610d6557610100808354040283529160200191610d90565b820191906000526020600020905b815481529060010190602001808311610d7357829003601f168201915b5050505050815260200160038054600181600116156101000203166002900480601f016020809104026020016040519081016040528092919081815260200182805460018160011615610100020316600290048015610e305780601f10610e0557610100808354040283529160200191610e30565b820191906000526020600020905b815481529060010190602001808311610e1357829003601f168201915b5050505050815260200160048054600181600116156101000203166002900480601f016020809104026020016040519081016040528092919081815260200182805460018160011615610100020316600290048015610ed05780601f10610ea557610100808354040283529160200191610ed0565b820191906000526020600020905b815481529060010190602001808311610eb357829003601f168201915b505050505081525060056000805481526020019081526020016000206000820151816000015560208201518160010160006101000a81548173ffffffffffffffffffffffffffffffffffffffff021916908373ffffffffffffffffffffffffffffffffffffffff1602179055506040820151816002019080519060200190610f5992919061154a565b50606082015181600301556080820151816004015560a0820151816005015560c0820151816006015560e0820151816007019080519060200190610f9e92919061154a565b50610100820151816008019080519060200190610fbc92919061154a565b50610120820151816009019080519060200190610fda92919061154a565b5090505060005460086000600154815260200190815260200160002081905550611069565b8260056000600860006001548152602001908152602001600020548152602001908152602001600020600401600082825401925050819055508060056000600860006001548152602001908152602001600020548152602001908152602001600020600501819055505b505050505050565b60008042905060008e8c8c84604051602001808573ffffffffffffffffffffffffffffffffffffffff1673ffffffffffffffffffffffffffffffffffffffff1660601b81526014018481526020018381526020018281526020019450505050506040516020818303038152906040528051906020012090508686600391906110fa9291906115ca565b5088886002919061110c9291906115ca565b5084846004919061111e9291906115ca565b506111718f8f8f8080601f016020809104026020016040519081016040528093929190818152602001838380828437600081840152601f19601f820116905080830192505050505050508e8e8e86610b2c565b80925050509c9b505050505050505050505050565b60076020528060005260406000206000915054906101000a900460ff1681565b6000848484604051602001808473ffffffffffffffffffffffffffffffffffffffff1673ffffffffffffffffffffffffffffffffffffffff1660601b815260140183838082843780830192505050935050505060405160208183030381529060405280519060200120600181905550816005600060086000600154815260200190815260200160002054815260200190815260200160002060050154149050949350505050565b60005481565b60066020528060005260406000206000915054906101000a900460ff1681565b60086020528060005260406000206000915090505481565b6000868585604051602001808473ffffffffffffffffffffffffffffffffffffffff1673ffffffffffffffffffffffffffffffffffffffff1660601b8152601401838380828437808301925050509350505050604051602081830303815290604052805190602001206001819055506000600860006001548152602001908152602001600020549050600060056000838152602001908152602001600020600401549050848110156113a5576040517f08c379a000000000000000000000000000000000000000000000000000000000815260040180806020018281038252601a8152602001807f4d65646963696e657320617265206f7574206f662073746f636b00000000000081525060200191505060405180910390fd5b846005600060086000600154815260200190815260200160002054815260200190815260200160002060040160008282540392505081905550600560008381526020019081526020016000206008016003908054600181600116156101000203166002900461141592919061164a565b50600560008381526020019081526020016000206007016002908054600181600116156101000203166002900461144d92919061164a565b50600560008381526020019081526020016000206009016004908054600181600116156101000203166002900461148592919061164a565b5061150a886040518060400160405280600a81526020017f77686f6c6573616c657200000000000000000000000000000000000000000000815250600560008681526020019081526020016000206003015488886005600060086000600154815260200190815260200160002054815260200190815260200160002060050154610b2c565b6005600060086000600154815260200190815260200160002054815260200190815260200160002060050154925050509695505050505050565b60015481565b828054600181600116156101000203166002900490600052602060002090601f016020900481019282601f1061158b57805160ff19168380011785556115b9565b828001600101855582156115b9579182015b828111156115b857825182559160200191906001019061159d565b5b5090506115c691906116d1565b5090565b828054600181600116156101000203166002900490600052602060002090601f016020900481019282601f1061160b57803560ff1916838001178555611639565b82800160010185558215611639579182015b8281111561163857823582559160200191906001019061161d565b5b50905061164691906116d1565b5090565b828054600181600116156101000203166002900490600052602060002090601f016020900481019282601f1061168357805485556116c0565b828001600101855582156116c057600052602060002091601f016020900482015b828111156116bf5782548255916001019190600101906116a4565b5b5090506116cd91906116d1565b5090565b6116f391905b808211156116ef5760008160009055506001016116d7565b5090565b9056fea265627a7a72315820066a47bb244b1881ba6d57f365c862f1b186968bdf891debd4b427184fec4bd464736f6c634300050c0032",
  "source": "pragma solidity ^0.5.0;\n\ncontract Admin{\n    uint public recordCount = 0;\n    bytes32 public hashedaccess;\n    string medName;\n    string manDate;\n    string expDate;\n    struct Record {\n        uint Recid;\n        address manufacturer;\n        string man_name;\n        uint med_id;\n        uint quantity;\n        bytes32 batchNo;\n        uint licenseMan;\n        string medName;\n        string manDate;\n        string expDate;\n    }\n\n    mapping(uint => Record) public records;\n    mapping(uint => bool) public licenseMans;\n    mapping(uint => bool) public licenseWho;\n    mapping(bytes32 => uint) public getrecids;\n    constructor() public {\n        licenseMans[1] = true;\n        licenseMans[2] = true;\n        licenseMans[3] = true;\n        \n        licenseWho[1] = true;\n        licenseWho[2] = true;\n        licenseWho[3] = true;\n    }\n\n    function addRecordToTable(address _manufacturer,string memory _man_name, uint _med_id,uint _quantity,uint _licenseMan,bytes32 _batchNo) public{\n        require(licenseMans[_licenseMan] == true, \"Invalid Manufacture License\");\n        hashedaccess = keccak256(abi.encodePacked(_manufacturer,medName));\n        if(getrecids[hashedaccess]==0){\n        recordCount += 1;\n        records[recordCount] = Record(recordCount,_manufacturer,_man_name,_med_id,_quantity,_batchNo,_licenseMan,medName,manDate,expDate);\n        getrecids[hashedaccess] = recordCount;}\n        else{\n            records[getrecids[hashedaccess]].quantity += _quantity;\n            records[getrecids[hashedaccess]].batchNo = _batchNo;\n        }\n    }\n\n    function addManufactureRecord(address _manufacturer,string calldata _man_name,uint _med_id,uint _quantity,uint _licenseMan, string calldata _medName,string calldata _manDate,string calldata _expDate) external returns(bytes32){\n        uint tempSecretx = block.timestamp;\n        bytes32 batchNo = keccak256(abi.encodePacked(_manufacturer,_med_id,_quantity, tempSecretx));\n        manDate = _manDate;\n        medName = _medName;\n        expDate = _expDate;\n        addRecordToTable(_manufacturer,_man_name,_med_id,_quantity,_licenseMan,batchNo);\n        return batchNo;\n    }\n    function WholesalerTransaction(address _manufacturer,address _wholesaler,string calldata _med_name,uint _quantity,uint _license) external returns(bytes32){\n        hashedaccess = keccak256(abi.encodePacked(_manufacturer,_med_name));\n        uint test1 = getrecids[hashedaccess];\n        uint test = records[test1].quantity;\n        require( test >= _quantity,\"Medicines are out of stock\");\n        records[getrecids[hashedaccess]].quantity -= _quantity;\n        manDate = records[test1].manDate;\n        medName = records[test1].medName;\n        expDate = records[test1].expDate;\n        addRecordToTable(_wholesaler,\"wholesaler\",records[test1].med_id,_quantity,_license,records[getrecids[hashedaccess]].batchNo);\n        return records[getrecids[hashedaccess]].batchNo ;\n    }\n    \n    function validate(address _wholesaler,string calldata _med_name,bytes32 _batchNo) external returns(bool){\n        hashedaccess = keccak256(abi.encodePacked(_wholesaler,_med_name));\n        return records[getrecids[hashedaccess]].batchNo == _batchNo ; \n    }\n}\n\n\ncontract Manufacture{\n    address public Owner;\n    address Adminaddress;\n    address public using_address;\n    bytes32 public batchNo;\n    uint public license;\n    constructor(address _admin,uint _licenseMan) public {\n        Adminaddress = _admin;\n        Owner = msg.sender;\n        using_address = address(this);\n        license = _licenseMan;\n    }\n    modifier onlyOwner() {\n        require(msg.sender == Owner, \"Only owner can call this function\");\n        _;\n    }\n\n    function addMedicineRecord(string memory _man_name,uint _med_id,uint _quantity,string memory _medName,string memory _manDate,string memory _expDate) public onlyOwner returns(bytes32){\n    Admin adminConnect = Admin(Adminaddress);\n    batchNo = adminConnect.addManufactureRecord(using_address,_man_name,_med_id,_quantity,license,_medName,_manDate,_expDate);\n    return batchNo;\n    }\n    \n    function sellMedicine (address _wholesaler, string calldata _med_name, uint _quantity, uint _license) external returns(bytes32){\n        Admin adminConnect = Admin (Adminaddress);\n        return adminConnect.WholesalerTransaction(using_address,_wholesaler,_med_name,_quantity,_license);\n        \n    }\n}\n\ncontract Manufacture1{\n    address public Owner;\n    address Adminaddress;\n    address public using_address;\n    bytes32 public batchNo;\n    uint public license;\n    constructor(address _admin,uint _licenseMan) public {\n        Adminaddress = _admin;\n        Owner = msg.sender;\n        using_address = address(this);\n        license = _licenseMan;\n    }\n    modifier onlyOwner() {\n        require(msg.sender == Owner, \"Only owner can call this function\");\n        _;\n    }\n\n    function addMedicineRecord(string memory _man_name,uint _med_id,uint _quantity,string memory _medName,string memory _manDate,string memory _expDate) public onlyOwner returns(bytes32){\n    Admin adminConnect = Admin(Adminaddress);\n    batchNo = adminConnect.addManufactureRecord(using_address,_man_name,_med_id,_quantity,license,_medName,_manDate,_expDate);\n    return batchNo;\n    }\n    \n    function sellMedicine (address _wholesaler, string calldata _med_name, uint _quantity, uint _license) external returns(bytes32){\n        Admin adminConnect = Admin (Adminaddress);\n        return adminConnect.WholesalerTransaction(using_address,_wholesaler,_med_name,_quantity,_license);\n        \n    }\n}\n\ncontract Manufacture2{\n    address public Owner;\n    address Adminaddress;\n    address public using_address;\n    bytes32 public batchNo;\n    uint public license;\n    constructor(address _admin,uint _licenseMan) public {\n        Adminaddress = _admin;\n        Owner = msg.sender;\n        using_address = address(this);\n        license = _licenseMan;\n    }\n    modifier onlyOwner() {\n        require(msg.sender == Owner, \"Only owner can call this function\");\n        _;\n    }\n\n    function addMedicineRecord(string memory _man_name,uint _med_id,uint _quantity,string memory _medName,string memory _manDate,string memory _expDate) public onlyOwner returns(bytes32){\n    Admin adminConnect = Admin(Adminaddress);\n    batchNo = adminConnect.addManufactureRecord(using_address,_man_name,_med_id,_quantity,license,_medName,_manDate,_expDate);\n    return batchNo;\n    }\n    \n    function sellMedicine (address _wholesaler, string calldata _med_name, uint _quantity, uint _license) external returns(bytes32){\n        Admin adminConnect = Admin (Adminaddress);\n        return adminConnect.WholesalerTransaction(using_address,_wholesaler,_med_name,_quantity,_license);\n        \n    }\n}\n\ncontract Wholesaler{\n    string public medicines;\n    mapping(uint => address) man_address;\n    address public Owner;\n    address Adminaddress;\n    bool public done;\n    address usingAddress;\n    uint license;\n    constructor(address _admin,address _man1,address _man2,address _man3, uint _license) public{\n        Adminaddress = _admin;\n        Owner = msg.sender;\n        license = _license;\n        man_address[0] = _man1;\n        man_address[1] = _man2;\n        man_address[2] = _man3;\n        usingAddress = address(this);\n\n    }\n    modifier onlyOwner() {\n        require(msg.sender == Owner, \"Only owner can call this function\");\n        _;\n    }\n    function validate(string memory _med_name,bytes32 _batchNo) private returns (bool) {\n        Admin adm = Admin(Adminaddress);\n        return adm.validate(usingAddress,_med_name,_batchNo);\n    }\n    function buyMedicine(uint _index, string memory _med_name, uint _quantity) public onlyOwner{\n        Manufacture Man = Manufacture(man_address[_index]);\n        bytes32 hashedaccess = Man.sellMedicine(usingAddress,_med_name,_quantity,license);\n        done = validate(_med_name,hashedaccess);\n    }\n}",
  "sourcePath": "/home/abhishikta/7th_sem/webtech/medchain/contracts/SupplyChain.sol",
  "compiler": {
    "name": "solc",
    "version": "0.5.12+commit.7709ece9.Emscripten.clang"
  },
  "schemaVersion": "3.0.19",
  "updatedAt": "2019-11-21T19:01:38.865Z",
  "networkType": "ethereum",
  "devdoc": {
    "methods": {}
  },
  "userdoc": {
    "methods": {}
  }
}