{
  "contractName": "Customer",
  "abi": [
    {
      "inputs": [
        {
          "internalType": "address",
          "name": "_admin",
          "type": "address"
        }
      ],
      "payable": false,
      "stateMutability": "nonpayable",
      "type": "constructor"
    },
    {
      "anonymous": false,
      "inputs": [
        {
          "indexed": false,
          "internalType": "address",
          "name": "_wholesaler",
          "type": "address"
        },
        {
          "indexed": false,
          "internalType": "uint256",
          "name": "_quantity",
          "type": "uint256"
        },
        {
          "indexed": false,
          "internalType": "string",
          "name": "medName",
          "type": "string"
        }
      ],
      "name": "wholesalerFound",
      "type": "event"
    },
    {
      "constant": true,
      "inputs": [],
      "name": "Owner",
      "outputs": [
        {
          "internalType": "address",
          "name": "",
          "type": "address"
        }
      ],
      "payable": false,
      "stateMutability": "view",
      "type": "function"
    },
    {
      "constant": false,
      "inputs": [
        {
          "internalType": "uint256",
          "name": "_med_id",
          "type": "uint256"
        }
      ],
      "name": "getMedicines",
      "outputs": [],
      "payable": false,
      "stateMutability": "nonpayable",
      "type": "function"
    }
  ],
  "bytecode": "0x6080604052600160025534801561001557600080fd5b50604051610860380380610860833981810160405261003791908101906100d3565b80600160006101000a81548173ffffffffffffffffffffffffffffffffffffffff021916908373ffffffffffffffffffffffffffffffffffffffff160217905550336000806101000a81548173ffffffffffffffffffffffffffffffffffffffff021916908373ffffffffffffffffffffffffffffffffffffffff16021790555050610145565b6000815190506100cd8161012e565b92915050565b6000602082840312156100e557600080fd5b60006100f3848285016100be565b91505092915050565b60006101078261010e565b9050919050565b600073ffffffffffffffffffffffffffffffffffffffff82169050919050565b610137816100fc565b811461014257600080fd5b50565b61070c806101546000396000f3fe608060405234801561001057600080fd5b50600436106100365760003560e01c8063b4a99a4e1461003b578063dab5026d14610059575b600080fd5b610043610075565b6040516100509190610512565b60405180910390f35b610073600480360361006e9190810190610388565b61009a565b005b6000809054906101000a900473ffffffffffffffffffffffffffffffffffffffff1681565b6000809054906101000a900473ffffffffffffffffffffffffffffffffffffffff1673ffffffffffffffffffffffffffffffffffffffff163373ffffffffffffffffffffffffffffffffffffffff1614610129576040517f08c379a00000000000000000000000000000000000000000000000000000000081526004016101209061056b565b60405180910390fd5b6000600160009054906101000a900473ffffffffffffffffffffffffffffffffffffffff16905060008173ffffffffffffffffffffffffffffffffffffffff166305cab5c2846040518263ffffffff1660e01b815260040161018b919061058b565b60206040518083038186803b1580156101a357600080fd5b505afa1580156101b7573d6000803e3d6000fd5b505050506040513d601f19601f820116820180604052506101db91908101906103b1565b90505b80600254116102e857600080600060608573ffffffffffffffffffffffffffffffffffffffff1663829fa5156002546040518263ffffffff1660e01b8152600401610229919061058b565b60006040518083038186803b15801561024157600080fd5b505afa158015610255573d6000803e3d6000fd5b505050506040513d6000823e3d601f19601f8201168201806040525061027e91908101906103da565b9350935093509350600084141561029857505050506102e8565b6001600254016002819055507f23bbb8ab49ea5cf65cbd4e47d98ffe0fefb51910c38df05d7c0e9cca70ce5a9a8383836040516102d79392919061052d565b60405180910390a1505050506101de565b6001600281905550505050565b6000815190506103048161069b565b92915050565b600082601f83011261031b57600080fd5b815161032e610329826105d3565b6105a6565b9150808252602083016020830185838301111561034a57600080fd5b610355838284610657565b50505092915050565b60008135905061036d816106b2565b92915050565b600081519050610382816106b2565b92915050565b60006020828403121561039a57600080fd5b60006103a88482850161035e565b91505092915050565b6000602082840312156103c357600080fd5b60006103d184828501610373565b91505092915050565b600080600080608085870312156103f057600080fd5b60006103fe87828801610373565b945050602061040f878288016102f5565b935050604061042087828801610373565b925050606085015167ffffffffffffffff81111561043d57600080fd5b6104498782880161030a565b91505092959194509250565b61045e8161061b565b82525050565b600061046f826105ff565b610479818561060a565b9350610489818560208601610657565b6104928161068a565b840191505092915050565b60006104aa60218361060a565b91507f4f6e6c79206f776e65722063616e2063616c6c20746869732066756e6374696f60008301527f6e000000000000000000000000000000000000000000000000000000000000006020830152604082019050919050565b61050c8161064d565b82525050565b60006020820190506105276000830184610455565b92915050565b60006060820190506105426000830186610455565b61054f6020830185610503565b81810360408301526105618184610464565b9050949350505050565b600060208201905081810360008301526105848161049d565b9050919050565b60006020820190506105a06000830184610503565b92915050565b6000604051905081810181811067ffffffffffffffff821117156105c957600080fd5b8060405250919050565b600067ffffffffffffffff8211156105ea57600080fd5b601f19601f8301169050602081019050919050565b600081519050919050565b600082825260208201905092915050565b60006106268261062d565b9050919050565b600073ffffffffffffffffffffffffffffffffffffffff82169050919050565b6000819050919050565b60005b8381101561067557808201518184015260208101905061065a565b83811115610684576000848401525b50505050565b6000601f19601f8301169050919050565b6106a48161061b565b81146106af57600080fd5b50565b6106bb8161064d565b81146106c657600080fd5b5056fea365627a7a72315820e5e822ff8204670082de77caeae0159808d78dc0cc4e7ca9257ecb19c191b5fc6c6578706572696d656e74616cf564736f6c634300050c0040",
  "source": "pragma solidity ^0.5.0;\npragma experimental ABIEncoderV2;\n\ncontract Admin{\n    uint public recordCount = 0;\n    bytes32 public hashedaccess;\n    string medName;\n    string manDate;\n    string expDate;\n    struct Record {\n        uint Recid;\n        address manufacturer;\n        uint med_id;\n        uint quantity;\n        bytes32 batchNo;\n        uint licenseMan;\n        uint licenseWhole;\n        string medName;\n        string manDate;\n        string expDate;\n    }\n\n    mapping(uint => Record) public records;\n    mapping(uint => bool) public licenseMans;\n    mapping(uint => bool) public licenseWho;\n    mapping(bytes32 => uint) public getrecids;\n    constructor() public {\n        licenseMans[1] = true;\n        licenseMans[2] = true;\n        licenseMans[3] = true;\n        \n        licenseWho[1] = true;\n        licenseWho[2] = true;\n        licenseWho[3] = true;\n    }\n\n    function addRecordToTable(address _manufacturer,uint _med_id,uint _quantity,uint _licenseMan,uint _licensewho,bytes32 _batchNo) public{\n        if(_licensewho == 0){\n        require(licenseMans[_licenseMan] == true, \"Invalid Manufacture License\");}\n        else{\n        require(licenseWho[_licensewho] == true, \"Invalid Wholesaler License\");\n        }//recordCount = recordCount + 1;\n        recordCount += 1;\n        records[recordCount] = Record(recordCount,_manufacturer,_med_id,_quantity,_batchNo,_licenseMan,_licensewho,medName,manDate,expDate);\n        hashedaccess = keccak256(abi.encodePacked(_manufacturer,_med_id));\n        getrecids[hashedaccess] = recordCount;\n    }\n\n    function sendManDetails(address _manufacturer) public returns (Record[] memory outArray_){\n        uint j = 0;\n        for (uint index = 0; index < recordCount; index++) {\n            if(records[index].manufacturer == _manufacturer){\n                outArray_[j] = records[index];\n                j = j+1;\n            }\n        }\n    }\n\n    function addManufactureRecord(address _manufacturer,uint _med_id,uint _quantity,uint _licenseMan,uint _licenseWho, string calldata _medName,string calldata _manDate,string calldata _expDate) external returns(bytes32){\n        uint tempSecretx = block.timestamp;\n        bytes32 batchNo = keccak256(abi.encodePacked(_manufacturer,_med_id,_quantity, tempSecretx));\n        manDate = _manDate;\n        medName = _medName;\n        expDate = _expDate;\n        addRecordToTable(_manufacturer,_med_id,_quantity,_licenseMan,_licenseWho,batchNo);\n        return batchNo;\n    }\n    function WholesalerTransaction(address _manufacturer,address _wholesaler,uint _med_id,uint _quantity,uint _license) external returns(bytes32){\n        hashedaccess = keccak256(abi.encodePacked(_manufacturer,_med_id));\n        \n        uint test1 = getrecids[hashedaccess];\n        uint test = records[test1].quantity;\n        require( test >= _quantity,\"Medicines are out of stock\");\n        records[getrecids[hashedaccess]].quantity -= _quantity;\n        manDate = records[test1].manDate;\n        medName = records[test1].medName;\n        expDate = records[test1].expDate;\n        addRecordToTable(_wholesaler,_med_id,_quantity,0,_license,records[getrecids[hashedaccess]].batchNo);\n        return records[getrecids[hashedaccess]].batchNo ;\n    }\n    \n    function validate(address _wholesaler,uint _med_id,bytes32 _batchNo) external returns(bool){\n        hashedaccess = keccak256(abi.encodePacked(_wholesaler,_med_id));\n        return records[getrecids[hashedaccess]].batchNo == _batchNo ; \n    }\n    \n    function getnumberofWholsaleDealers(uint _med_id) external view returns(uint){\n        uint num=0;\n        for(uint i=1;i<=recordCount;i++){\n            if(records[i].licenseMan == 0)\n            num=num+1;\n        }\n        return num;\n    }\n    \n    function getWholeSale(uint _i) external view returns(uint,address,uint,string memory){\n        for(uint i=_i;i<=recordCount;i++){\n            if(records[i].licenseWhole != 0)\n            return (1,records[i].manufacturer,records[i].quantity,records[i].medName);\n        }\n        return(0,records[0].manufacturer,records[0].quantity,records[0].medName);\n    }\n}\n\n\ncontract Manufacture{\n    string public medicines;\n    address public Owner;\n    address Adminaddress;\n    uint license;\n    constructor(address _admin,uint _licenseMan) public {\n        medicines = \"Paracetamol\";\n        Adminaddress = _admin;\n        Owner = msg.sender;\n        license = _licenseMan;\n    }\n    modifier onlyOwner() {\n        require(msg.sender == Owner, \"Only owner can call this function\");\n        _;\n    }\n\n    function addMedicineRecord(uint _med_id,uint _quantity,string memory _medName,string memory _manDate,string memory _expDate) public onlyOwner returns(bytes32){\n    Admin adminConnect = Admin(Adminaddress);\n    bytes32 batchNo = adminConnect.addManufactureRecord(msg.sender,_med_id,_quantity,license,0,_medName,_manDate,_expDate);\n    return batchNo;\n    }\n    \n    function sellMedicine (address _wholesaler, uint _med_id, uint _quantity, uint _license) external returns(bytes32){\n        Admin adminConnect = Admin (Adminaddress);\n        return adminConnect.WholesalerTransaction(Owner,_wholesaler,_med_id,_quantity,_license);\n        \n    }\n    \n    \n}\n\ncontract Wholesaler{\n    string public medicines;\n    address public Owner;\n    address Adminaddress;\n    uint license;\n    constructor(address _admin, uint _license) public{\n        medicines = \"Paracetamol\";\n        Adminaddress = _admin;\n        Owner = msg.sender;\n        license = _license;\n    }\n    modifier onlyOwner() {\n        require(msg.sender == Owner, \"Only owner can call this function\");\n        _;\n    }\n    function validate(uint _med_id,bytes32 _batchNo) private {\n        Admin adm = Admin(Adminaddress);\n        require(adm.validate(msg.sender,_med_id,_batchNo),\"Unsuccessfull Transaction\");\n    }\n    function buyMedicine (address _manufacturer , uint _med_id,uint _quantity) public onlyOwner{\n        Manufacture Man = Manufacture(_manufacturer);\n        bytes32 hashedaccess = Man.sellMedicine(msg.sender,_med_id,_quantity,license);\n        validate(_med_id,hashedaccess);\n    }\n}\n\ncontract Customer{\n    address public Owner;\n    address Adminaddress;\n    uint i=1;\n    constructor(address _admin) public{\n        Adminaddress = _admin;\n        Owner = msg.sender;\n    }\n    modifier onlyOwner() {\n        require(msg.sender == Owner, \"Only owner can call this function\");\n        _;\n    }\n    \n    event wholesalerFound(address _wholesaler,uint _quantity,string medName);\n    \n    function getMedicines(uint _med_id) public onlyOwner{\n        Admin adm = Admin(Adminaddress);\n        uint num = adm.getnumberofWholsaleDealers(_med_id);\n        while(i<=num){\n            (uint a,address b,uint c,string memory d) = adm.getWholeSale(i);\n            if(a==0)\n            break;\n            i = i+1;\n            emit wholesalerFound(b,c,d);\n            \n        }\n        i=1;\n        \n    }\n}\n",
  "sourcePath": "/home/abhishikta/7th_sem/webtech/medchain/contracts/SupplyChain.sol",
  "compiler": {
    "name": "solc",
    "version": "0.5.12+commit.7709ece9.Emscripten.clang"
  },
  "schemaVersion": "3.0.19",
  "updatedAt": "2019-11-20T17:31:04.854Z",
  "devdoc": {
    "methods": {}
  },
  "userdoc": {
    "methods": {}
  }
}