{
  "contractName": "Customer",
  "abi": [
    {
      "inputs": [
        {
          "internalType": "address",
          "name": "_admin",
          "type": "address"
        }
      ],
      "payable": false,
      "stateMutability": "nonpayable",
      "type": "constructor"
    },
    {
      "anonymous": false,
      "inputs": [
        {
          "indexed": false,
          "internalType": "address",
          "name": "_wholesaler",
          "type": "address"
        },
        {
          "indexed": false,
          "internalType": "uint256",
          "name": "_quantity",
          "type": "uint256"
        },
        {
          "indexed": false,
          "internalType": "string",
          "name": "medName",
          "type": "string"
        }
      ],
      "name": "wholesalerFound",
      "type": "event"
    },
    {
      "constant": true,
      "inputs": [],
      "name": "Owner",
      "outputs": [
        {
          "internalType": "address",
          "name": "",
          "type": "address"
        }
      ],
      "payable": false,
      "stateMutability": "view",
      "type": "function"
    },
    {
      "constant": false,
      "inputs": [
        {
          "internalType": "uint256",
          "name": "_med_id",
          "type": "uint256"
        }
      ],
      "name": "getMedicines",
      "outputs": [],
      "payable": false,
      "stateMutability": "nonpayable",
      "type": "function"
    }
  ],
  "bytecode": "0x6080604052600160025534801561001557600080fd5b506040516105f33803806105f38339818101604052602081101561003857600080fd5b810190808051906020019092919050505080600160006101000a81548173ffffffffffffffffffffffffffffffffffffffff021916908373ffffffffffffffffffffffffffffffffffffffff160217905550336000806101000a81548173ffffffffffffffffffffffffffffffffffffffff021916908373ffffffffffffffffffffffffffffffffffffffff16021790555050610519806100da6000396000f3fe608060405234801561001057600080fd5b50600436106100365760003560e01c8063b4a99a4e1461003b578063dab5026d14610085575b600080fd5b6100436100b3565b604051808273ffffffffffffffffffffffffffffffffffffffff1673ffffffffffffffffffffffffffffffffffffffff16815260200191505060405180910390f35b6100b16004803603602081101561009b57600080fd5b81019080803590602001909291905050506100d8565b005b6000809054906101000a900473ffffffffffffffffffffffffffffffffffffffff1681565b6000809054906101000a900473ffffffffffffffffffffffffffffffffffffffff1673ffffffffffffffffffffffffffffffffffffffff163373ffffffffffffffffffffffffffffffffffffffff161461017d576040517f08c379a00000000000000000000000000000000000000000000000000000000081526004018080602001828103825260218152602001806104c46021913960400191505060405180910390fd5b6000600160009054906101000a900473ffffffffffffffffffffffffffffffffffffffff16905060008173ffffffffffffffffffffffffffffffffffffffff166305cab5c2846040518263ffffffff1660e01b81526004018082815260200191505060206040518083038186803b1580156101f757600080fd5b505afa15801561020b573d6000803e3d6000fd5b505050506040513d602081101561022157600080fd5b810190808051906020019092919050505090505b80600254116104b657600080600060608573ffffffffffffffffffffffffffffffffffffffff1663829fa5156002546040518263ffffffff1660e01b81526004018082815260200191505060006040518083038186803b15801561029857600080fd5b505afa1580156102ac573d6000803e3d6000fd5b505050506040513d6000823e3d601f19601f8201168201806040525060808110156102d657600080fd5b810190808051906020019092919080519060200190929190805190602001909291908051604051939291908464010000000082111561031457600080fd5b8382019150602082018581111561032a57600080fd5b825186600182028301116401000000008211171561034757600080fd5b8083526020830192505050908051906020019080838360005b8381101561037b578082015181840152602081019050610360565b50505050905090810190601f1680156103a85780820380516001836020036101000a031916815260200191505b50604052505050935093509350935060008414156103c957505050506104b6565b6001600254016002819055507f23bbb8ab49ea5cf65cbd4e47d98ffe0fefb51910c38df05d7c0e9cca70ce5a9a838383604051808473ffffffffffffffffffffffffffffffffffffffff1673ffffffffffffffffffffffffffffffffffffffff16815260200183815260200180602001828103825283818151815260200191508051906020019080838360005b83811015610471578082015181840152602081019050610456565b50505050905090810190601f16801561049e5780820380516001836020036101000a031916815260200191505b5094505050505060405180910390a150505050610235565b600160028190555050505056fe4f6e6c79206f776e65722063616e2063616c6c20746869732066756e6374696f6ea265627a7a723158202669eedd2d05a2d3fd4acd258d074352d5399fca6b45f6e5cac22cf03cb57e9064736f6c634300050c0032",
  "source": "pragma solidity ^0.5.0;\n\ncontract Admin{\n    uint public recordCount = 0;\n    bytes32 public hashedaccess;\n    string medName;\n    string manDate;\n    string expDate;\n    struct Record {\n        uint Recid;\n        address manufacturer;\n        uint med_id;\n        uint quantity;\n        bytes32 batchNo;\n        uint licenseMan;\n        uint licenseWhole;\n        string medName;\n        string manDate;\n        string expDate;\n    }\n\n    mapping(uint => Record) public records;\n    mapping(uint => bool) public licenseMans;\n    mapping(uint => bool) public licenseWho;\n    mapping(bytes32 => uint) public getrecids;\n    constructor() public {\n        licenseMans[1] = true;\n        licenseMans[2] = true;\n        licenseMans[3] = true;\n        \n        licenseWho[1] = true;\n        licenseWho[2] = true;\n        licenseWho[3] = true;\n    }\n\n    function addRecordToTable(address _manufacturer,uint _med_id,uint _quantity,uint _licenseMan,uint _licensewho,bytes32 _batchNo) public{\n        if(_licensewho == 0){\n        require(licenseMans[_licenseMan] == true, \"Invalid Manufacture License\");}\n        else{\n        require(licenseWho[_licensewho] == true, \"Invalid Wholesaler License\");\n        }//recordCount = recordCount + 1;\n        recordCount += 1;\n        records[recordCount] = Record(recordCount,_manufacturer,_med_id,_quantity,_batchNo,_licenseMan,_licensewho,medName,manDate,expDate);\n        hashedaccess = keccak256(abi.encodePacked(_manufacturer,_med_id));\n        getrecids[hashedaccess] = recordCount;\n    }\n\n    function addManufactureRecord(address _manufacturer,uint _med_id,uint _quantity,uint _licenseMan,uint _licenseWho, string calldata _medName,string calldata _manDate,string calldata _expDate) external returns(bytes32){\n        uint tempSecretx = block.timestamp;\n        bytes32 batchNo = keccak256(abi.encodePacked(_manufacturer,_med_id,_quantity, tempSecretx));\n        manDate = _manDate;\n        medName = _medName;\n        expDate = _expDate;\n        addRecordToTable(_manufacturer,_med_id,_quantity,_licenseMan,_licenseWho,batchNo);\n        return batchNo;\n    }\n    function WholesalerTransaction(address _manufacturer,address _wholesaler,uint _med_id,uint _quantity,uint _license) external returns(bytes32){\n        hashedaccess = keccak256(abi.encodePacked(_manufacturer,_med_id));\n        \n        uint test1 = getrecids[hashedaccess];\n        uint test = records[test1].quantity;\n        require( test >= _quantity,\"Medicines are out of stock\");\n        records[getrecids[hashedaccess]].quantity -= _quantity;\n        manDate = records[test1].manDate;\n        medName = records[test1].medName;\n        expDate = records[test1].expDate;\n        addRecordToTable(_wholesaler,_med_id,_quantity,0,_license,records[getrecids[hashedaccess]].batchNo);\n        return records[getrecids[hashedaccess]].batchNo ;\n    }\n    \n    function validate(address _wholesaler,uint _med_id,bytes32 _batchNo) external returns(bool){\n        hashedaccess = keccak256(abi.encodePacked(_wholesaler,_med_id));\n        return records[getrecids[hashedaccess]].batchNo == _batchNo ; \n    }\n    \n    function getnumberofWholsaleDealers(uint _med_id) external view returns(uint){\n        uint num=0;\n        for(uint i=1;i<=recordCount;i++){\n            if(records[i].licenseWhole != 0 && records[i].med_id == _med_id)\n            num=num+1;\n        }\n        return num;\n    }\n    \n    function getWholeSale(uint _i) external view returns(uint,address,uint,string memory){\n        for(uint i=_i;i<=recordCount;i++){\n            if(records[i].licenseWhole != 0)\n            return (1,records[i].manufacturer,records[i].quantity,records[i].medName);\n        }\n        return(0,records[0].manufacturer,records[0].quantity,records[0].medName);\n    }\n}\n\n\ncontract Manufacture{\n    address public Owner;\n    address Adminaddress;\n    address public using_address;\n    bytes32 public batchNo;\n    uint public license;\n    constructor(address _admin,uint _licenseMan) public {\n        Adminaddress = _admin;\n        Owner = msg.sender;\n        using_address = address(this);\n        license = _licenseMan;\n    }\n    modifier onlyOwner() {\n        require(msg.sender == Owner, \"Only owner can call this function\");\n        _;\n    }\n\n    function addMedicineRecord(uint _med_id,uint _quantity,string memory _medName,string memory _manDate,string memory _expDate) public onlyOwner returns(bytes32){\n    Admin adminConnect = Admin(Adminaddress);\n    batchNo = adminConnect.addManufactureRecord(using_address,_med_id,_quantity,license,0,_medName,_manDate,_expDate);\n    return batchNo;\n    }\n    \n    function sellMedicine (address _wholesaler, uint _med_id, uint _quantity, uint _license) external returns(bytes32){\n        Admin adminConnect = Admin (Adminaddress);\n        return adminConnect.WholesalerTransaction(using_address,_wholesaler,_med_id,_quantity,_license);\n        \n    }\n    \n    \n}\n\ncontract Wholesaler{\n    string public medicines;\n    address public Owner;\n    address Adminaddress;\n    bool public done;\n    uint license;\n    constructor(address _admin, uint _license) public{\n        medicines = \"Paracetamol\";\n        Adminaddress = _admin;\n        Owner = msg.sender;\n        license = _license;\n    }\n    modifier onlyOwner() {\n        require(msg.sender == Owner, \"Only owner can call this function\");\n        _;\n    }\n    function validate(uint _med_id,bytes32 _batchNo) private returns (bool) {\n        Admin adm = Admin(Adminaddress);\n        return adm.validate(msg.sender,_med_id,_batchNo);\n    }\n    function buyMedicine (address _manufacturer , uint _med_id,uint _quantity) public onlyOwner{\n        Manufacture Man = Manufacture(_manufacturer);\n        bytes32 hashedaccess = Man.sellMedicine(msg.sender,_med_id,_quantity,license);\n        done = validate(_med_id,hashedaccess);\n    }\n}\n\ncontract Customer{\n    address public Owner;\n    address Adminaddress;\n    uint i=1;\n    constructor(address _admin) public{\n        Adminaddress = _admin;\n        Owner = msg.sender;\n    }\n    modifier onlyOwner() {\n        require(msg.sender == Owner, \"Only owner can call this function\");\n        _;\n    }\n    \n    event wholesalerFound(address _wholesaler,uint _quantity,string medName);\n    \n    function getMedicines(uint _med_id) public onlyOwner{\n        Admin adm = Admin(Adminaddress);\n        uint num = adm.getnumberofWholsaleDealers(_med_id);\n        while(i<=num){\n            (uint a,address b,uint c,string memory d) = adm.getWholeSale(i);\n            if(a==0)\n            break;\n            i = i+1;\n            emit wholesalerFound(b,c,d);\n            \n        }\n        i=1;\n        \n    }\n}\n",
  "sourcePath": "/home/abhishikta/7th_sem/webtech/medchain/contracts/SupplyChain.sol",
  "compiler": {
    "name": "solc",
    "version": "0.5.12+commit.7709ece9.Emscripten.clang"
  },
  "schemaVersion": "3.0.19",
  "updatedAt": "2019-11-21T06:57:02.923Z",
  "devdoc": {
    "methods": {}
  },
  "userdoc": {
    "methods": {}
  }
}