{
  "contractName": "Manufacture",
  "abi": [
    {
      "inputs": [
        {
          "internalType": "address",
          "name": "_admin",
          "type": "address"
        },
        {
          "internalType": "uint256",
          "name": "_licenseMan",
          "type": "uint256"
        }
      ],
      "payable": false,
      "stateMutability": "nonpayable",
      "type": "constructor"
    },
    {
      "constant": true,
      "inputs": [],
      "name": "Owner",
      "outputs": [
        {
          "internalType": "address",
          "name": "",
          "type": "address"
        }
      ],
      "payable": false,
      "stateMutability": "view",
      "type": "function"
    },
    {
      "constant": true,
      "inputs": [],
      "name": "medicines",
      "outputs": [
        {
          "internalType": "string",
          "name": "",
          "type": "string"
        }
      ],
      "payable": false,
      "stateMutability": "view",
      "type": "function"
    },
    {
      "constant": false,
      "inputs": [
        {
          "internalType": "uint256",
          "name": "_med_id",
          "type": "uint256"
        },
        {
          "internalType": "uint256",
          "name": "_quantity",
          "type": "uint256"
        },
        {
          "internalType": "string",
          "name": "_medName",
          "type": "string"
        },
        {
          "internalType": "string",
          "name": "_manDate",
          "type": "string"
        },
        {
          "internalType": "string",
          "name": "_expDate",
          "type": "string"
        }
      ],
      "name": "addMedicineRecord",
      "outputs": [
        {
          "internalType": "bytes32",
          "name": "",
          "type": "bytes32"
        }
      ],
      "payable": false,
      "stateMutability": "nonpayable",
      "type": "function"
    },
    {
      "constant": false,
      "inputs": [
        {
          "internalType": "address",
          "name": "_wholesaler",
          "type": "address"
        },
        {
          "internalType": "uint256",
          "name": "_med_id",
          "type": "uint256"
        },
        {
          "internalType": "uint256",
          "name": "_quantity",
          "type": "uint256"
        },
        {
          "internalType": "uint256",
          "name": "_license",
          "type": "uint256"
        }
      ],
      "name": "sellMedicine",
      "outputs": [
        {
          "internalType": "bytes32",
          "name": "",
          "type": "bytes32"
        }
      ],
      "payable": false,
      "stateMutability": "nonpayable",
      "type": "function"
    }
  ],
  "bytecode": "0x60806040523480156200001157600080fd5b5060405162000cfe38038062000cfe8339818101604052620000379190810190620001f3565b6040518060400160405280600b81526020017f50617261636574616d6f6c000000000000000000000000000000000000000000815250600090805190602001906200008492919062000116565b5081600260006101000a81548173ffffffffffffffffffffffffffffffffffffffff021916908373ffffffffffffffffffffffffffffffffffffffff16021790555033600160006101000a81548173ffffffffffffffffffffffffffffffffffffffff021916908373ffffffffffffffffffffffffffffffffffffffff160217905550806003819055505050620002a6565b828054600181600116156101000203166002900490600052602060002090601f016020900481019282601f106200015957805160ff19168380011785556200018a565b828001600101855582156200018a579182015b82811115620001895782518255916020019190600101906200016c565b5b5090506200019991906200019d565b5090565b620001c291905b80821115620001be576000816000905550600101620001a4565b5090565b90565b600081519050620001d68162000272565b92915050565b600081519050620001ed816200028c565b92915050565b600080604083850312156200020757600080fd5b60006200021785828601620001c5565b92505060206200022a85828601620001dc565b9150509250929050565b6000620002418262000248565b9050919050565b600073ffffffffffffffffffffffffffffffffffffffff82169050919050565b6000819050919050565b6200027d8162000234565b81146200028957600080fd5b50565b620002978162000268565b8114620002a357600080fd5b50565b610a4880620002b66000396000f3fe608060405234801561001057600080fd5b506004361061004c5760003560e01c806350c7e9ed14610051578063752ea76414610081578063a67479411461009f578063b4a99a4e146100cf575b600080fd5b61006b6004803603610066919081019061051f565b6100ed565b6040516100789190610802565b60405180910390f35b610089610254565b604051610096919061081d565b60405180910390f35b6100b960048036036100b49190810190610493565b6102f2565b6040516100c69190610802565b60405180910390f35b6100d76103da565b6040516100e49190610701565b60405180910390f35b6000600160009054906101000a900473ffffffffffffffffffffffffffffffffffffffff1673ffffffffffffffffffffffffffffffffffffffff163373ffffffffffffffffffffffffffffffffffffffff161461017f576040517f08c379a00000000000000000000000000000000000000000000000000000000081526004016101769061083f565b60405180910390fd5b6000600260009054906101000a900473ffffffffffffffffffffffffffffffffffffffff16905060008173ffffffffffffffffffffffffffffffffffffffff1663255d50c5338a8a60035460008c8c8c6040518963ffffffff1660e01b81526004016101f298979695949392919061071c565b602060405180830381600087803b15801561020c57600080fd5b505af1158015610220573d6000803e3d6000fd5b505050506040513d601f19601f8201168201806040525061024491908101906104f6565b9050809250505095945050505050565b60008054600181600116156101000203166002900480601f0160208091040260200160405190810160405280929190818152602001828054600181600116156101000203166002900480156102ea5780601f106102bf576101008083540402835291602001916102ea565b820191906000526020600020905b8154815290600101906020018083116102cd57829003601f168201915b505050505081565b600080600260009054906101000a900473ffffffffffffffffffffffffffffffffffffffff1690508073ffffffffffffffffffffffffffffffffffffffff16634e7bd831600160009054906101000a900473ffffffffffffffffffffffffffffffffffffffff16888888886040518663ffffffff1660e01b815260040161037d9594939291906107af565b602060405180830381600087803b15801561039757600080fd5b505af11580156103ab573d6000803e3d6000fd5b505050506040513d601f19601f820116820180604052506103cf91908101906104f6565b915050949350505050565b600160009054906101000a900473ffffffffffffffffffffffffffffffffffffffff1681565b60008135905061040f816109c0565b92915050565b600081519050610424816109d7565b92915050565b600082601f83011261043b57600080fd5b813561044e6104498261088c565b61085f565b9150808252602083016020830185838301111561046a57600080fd5b61047583828461096d565b50505092915050565b60008135905061048d816109ee565b92915050565b600080600080608085870312156104a957600080fd5b60006104b787828801610400565b94505060206104c88782880161047e565b93505060406104d98782880161047e565b92505060606104ea8782880161047e565b91505092959194509250565b60006020828403121561050857600080fd5b600061051684828501610415565b91505092915050565b600080600080600060a0868803121561053757600080fd5b60006105458882890161047e565b95505060206105568882890161047e565b945050604086013567ffffffffffffffff81111561057357600080fd5b61057f8882890161042a565b935050606086013567ffffffffffffffff81111561059c57600080fd5b6105a88882890161042a565b925050608086013567ffffffffffffffff8111156105c557600080fd5b6105d18882890161042a565b9150509295509295909350565b6105e781610925565b82525050565b6105f6816108df565b82525050565b610605816108f1565b82525050565b61061481610937565b82525050565b6000610625826108c3565b61062f81856108ce565b935061063f81856020860161097c565b610648816109af565b840191505092915050565b600061065e826108b8565b61066881856108ce565b935061067881856020860161097c565b610681816109af565b840191505092915050565b60006106996021836108ce565b91507f4f6e6c79206f776e65722063616e2063616c6c20746869732066756e6374696f60008301527f6e000000000000000000000000000000000000000000000000000000000000006020830152604082019050919050565b6106fb8161091b565b82525050565b600060208201905061071660008301846105ed565b92915050565b600061010082019050610732600083018b6105de565b61073f602083018a6106f2565b61074c60408301896106f2565b61075960608301886106f2565b610766608083018761060b565b81810360a0830152610778818661061a565b905081810360c083015261078c818561061a565b905081810360e08301526107a0818461061a565b90509998505050505050505050565b600060a0820190506107c460008301886105ed565b6107d160208301876105ed565b6107de60408301866106f2565b6107eb60608301856106f2565b6107f860808301846106f2565b9695505050505050565b600060208201905061081760008301846105fc565b92915050565b600060208201905081810360008301526108378184610653565b905092915050565b600060208201905081810360008301526108588161068c565b9050919050565b6000604051905081810181811067ffffffffffffffff8211171561088257600080fd5b8060405250919050565b600067ffffffffffffffff8211156108a357600080fd5b601f19601f8301169050602081019050919050565b600081519050919050565b600081519050919050565b600082825260208201905092915050565b60006108ea826108fb565b9050919050565b6000819050919050565b600073ffffffffffffffffffffffffffffffffffffffff82169050919050565b6000819050919050565b600061093082610949565b9050919050565b60006109428261091b565b9050919050565b60006109548261095b565b9050919050565b6000610966826108fb565b9050919050565b82818337600083830152505050565b60005b8381101561099a57808201518184015260208101905061097f565b838111156109a9576000848401525b50505050565b6000601f19601f8301169050919050565b6109c9816108df565b81146109d457600080fd5b50565b6109e0816108f1565b81146109eb57600080fd5b50565b6109f78161091b565b8114610a0257600080fd5b5056fea365627a7a7231582075253dec656ed486235fca5769c9760c2414fcb1408f8bcf4f8e91765bdaea416c6578706572696d656e74616cf564736f6c634300050c0040",
  "source": "pragma solidity ^0.5.0;\npragma experimental ABIEncoderV2;\n\ncontract Admin{\n    uint public recordCount = 0;\n    bytes32 public hashedaccess;\n    string medName;\n    string manDate;\n    string expDate;\n    struct Record {\n        uint Recid;\n        address manufacturer;\n        uint med_id;\n        uint quantity;\n        bytes32 batchNo;\n        uint licenseMan;\n        uint licenseWhole;\n        string medName;\n        string manDate;\n        string expDate;\n    }\n\n    mapping(uint => Record) public records;\n    mapping(uint => bool) public licenseMans;\n    mapping(uint => bool) public licenseWho;\n    mapping(bytes32 => uint) public getrecids;\n    constructor() public {\n        licenseMans[1] = true;\n        licenseMans[2] = true;\n        licenseMans[3] = true;\n        \n        licenseWho[1] = true;\n        licenseWho[2] = true;\n        licenseWho[3] = true;\n    }\n\n    function addRecordToTable(address _manufacturer,uint _med_id,uint _quantity,uint _licenseMan,uint _licensewho,bytes32 _batchNo) public{\n        if(_licensewho == 0){\n        require(licenseMans[_licenseMan] == true, \"Invalid Manufacture License\");}\n        else{\n        require(licenseWho[_licensewho] == true, \"Invalid Wholesaler License\");\n        }//recordCount = recordCount + 1;\n        recordCount += 1;\n        records[recordCount] = Record(recordCount,_manufacturer,_med_id,_quantity,_batchNo,_licenseMan,_licensewho,medName,manDate,expDate);\n        hashedaccess = keccak256(abi.encodePacked(_manufacturer,_med_id));\n        getrecids[hashedaccess] = recordCount;\n    }\n\n    function sendManDetails(address _manufacturer) public returns (Record[] memory outArray_){\n        uint j = 0;\n        for (uint index = 0; index < recordCount; index++) {\n            if(records[index].manufacturer == _manufacturer){\n                outArray_[j] = records[index];\n                j = j+1;\n            }\n        }\n    }\n\n    function addManufactureRecord(address _manufacturer,uint _med_id,uint _quantity,uint _licenseMan,uint _licenseWho, string calldata _medName,string calldata _manDate,string calldata _expDate) external returns(bytes32){\n        uint tempSecretx = block.timestamp;\n        bytes32 batchNo = keccak256(abi.encodePacked(_manufacturer,_med_id,_quantity, tempSecretx));\n        manDate = _manDate;\n        medName = _medName;\n        expDate = _expDate;\n        addRecordToTable(_manufacturer,_med_id,_quantity,_licenseMan,_licenseWho,batchNo);\n        return batchNo;\n    }\n    function WholesalerTransaction(address _manufacturer,address _wholesaler,uint _med_id,uint _quantity,uint _license) external returns(bytes32){\n        hashedaccess = keccak256(abi.encodePacked(_manufacturer,_med_id));\n        \n        uint test1 = getrecids[hashedaccess];\n        uint test = records[test1].quantity;\n        require( test >= _quantity,\"Medicines are out of stock\");\n        records[getrecids[hashedaccess]].quantity -= _quantity;\n        manDate = records[test1].manDate;\n        medName = records[test1].medName;\n        expDate = records[test1].expDate;\n        addRecordToTable(_wholesaler,_med_id,_quantity,0,_license,records[getrecids[hashedaccess]].batchNo);\n        return records[getrecids[hashedaccess]].batchNo ;\n    }\n    \n    function validate(address _wholesaler,uint _med_id,bytes32 _batchNo) external returns(bool){\n        hashedaccess = keccak256(abi.encodePacked(_wholesaler,_med_id));\n        return records[getrecids[hashedaccess]].batchNo == _batchNo ; \n    }\n    \n    function getnumberofWholsaleDealers(uint _med_id) external view returns(uint){\n        uint num=0;\n        for(uint i=1;i<=recordCount;i++){\n            if(records[i].licenseMan == 0)\n            num=num+1;\n        }\n        return num;\n    }\n    \n    function getWholeSale(uint _i) external view returns(uint,address,uint,string memory){\n        for(uint i=_i;i<=recordCount;i++){\n            if(records[i].licenseWhole != 0)\n            return (1,records[i].manufacturer,records[i].quantity,records[i].medName);\n        }\n        return(0,records[0].manufacturer,records[0].quantity,records[0].medName);\n    }\n}\n\n\ncontract Manufacture{\n    string public medicines;\n    address public Owner;\n    address Adminaddress;\n    uint license;\n    constructor(address _admin,uint _licenseMan) public {\n        medicines = \"Paracetamol\";\n        Adminaddress = _admin;\n        Owner = msg.sender;\n        license = _licenseMan;\n    }\n    modifier onlyOwner() {\n        require(msg.sender == Owner, \"Only owner can call this function\");\n        _;\n    }\n\n    function addMedicineRecord(uint _med_id,uint _quantity,string memory _medName,string memory _manDate,string memory _expDate) public onlyOwner returns(bytes32){\n    Admin adminConnect = Admin(Adminaddress);\n    bytes32 batchNo = adminConnect.addManufactureRecord(msg.sender,_med_id,_quantity,license,0,_medName,_manDate,_expDate);\n    return batchNo;\n    }\n    \n    function sellMedicine (address _wholesaler, uint _med_id, uint _quantity, uint _license) external returns(bytes32){\n        Admin adminConnect = Admin (Adminaddress);\n        return adminConnect.WholesalerTransaction(Owner,_wholesaler,_med_id,_quantity,_license);\n        \n    }\n    \n    \n}\n\ncontract Wholesaler{\n    string public medicines;\n    address public Owner;\n    address Adminaddress;\n    uint license;\n    constructor(address _admin, uint _license) public{\n        medicines = \"Paracetamol\";\n        Adminaddress = _admin;\n        Owner = msg.sender;\n        license = _license;\n    }\n    modifier onlyOwner() {\n        require(msg.sender == Owner, \"Only owner can call this function\");\n        _;\n    }\n    function validate(uint _med_id,bytes32 _batchNo) private {\n        Admin adm = Admin(Adminaddress);\n        require(adm.validate(msg.sender,_med_id,_batchNo),\"Unsuccessfull Transaction\");\n    }\n    function buyMedicine (address _manufacturer , uint _med_id,uint _quantity) public onlyOwner{\n        Manufacture Man = Manufacture(_manufacturer);\n        bytes32 hashedaccess = Man.sellMedicine(msg.sender,_med_id,_quantity,license);\n        validate(_med_id,hashedaccess);\n    }\n}\n\ncontract Customer{\n    address public Owner;\n    address Adminaddress;\n    uint i=1;\n    constructor(address _admin) public{\n        Adminaddress = _admin;\n        Owner = msg.sender;\n    }\n    modifier onlyOwner() {\n        require(msg.sender == Owner, \"Only owner can call this function\");\n        _;\n    }\n    \n    event wholesalerFound(address _wholesaler,uint _quantity,string medName);\n    \n    function getMedicines(uint _med_id) public onlyOwner{\n        Admin adm = Admin(Adminaddress);\n        uint num = adm.getnumberofWholsaleDealers(_med_id);\n        while(i<=num){\n            (uint a,address b,uint c,string memory d) = adm.getWholeSale(i);\n            if(a==0)\n            break;\n            i = i+1;\n            emit wholesalerFound(b,c,d);\n            \n        }\n        i=1;\n        \n    }\n}\n",
  "sourcePath": "/home/abhishikta/7th_sem/webtech/medchain/contracts/SupplyChain.sol",
  "compiler": {
    "name": "solc",
    "version": "0.5.12+commit.7709ece9.Emscripten.clang"
  },
  "schemaVersion": "3.0.19",
  "updatedAt": "2019-11-20T17:31:04.878Z",
  "devdoc": {
    "methods": {}
  },
  "userdoc": {
    "methods": {}
  }
}