{
  "contractName": "Wholesaler",
  "abi": [
    {
      "constant": true,
      "inputs": [],
      "name": "medicines",
      "outputs": [
        {
          "name": "",
          "type": "string"
        }
      ],
      "payable": false,
      "stateMutability": "view",
      "type": "function"
    },
    {
      "constant": true,
      "inputs": [],
      "name": "Owner",
      "outputs": [
        {
          "name": "",
          "type": "address"
        }
      ],
      "payable": false,
      "stateMutability": "view",
      "type": "function"
    },
    {
      "inputs": [
        {
          "name": "_admin",
          "type": "address"
        },
        {
          "name": "_license",
          "type": "uint256"
        }
      ],
      "payable": false,
      "stateMutability": "nonpayable",
      "type": "constructor"
    },
    {
      "constant": false,
      "inputs": [
        {
          "name": "_manufacturer",
          "type": "address"
        },
        {
          "name": "_med_id",
          "type": "uint256"
        },
        {
          "name": "_quantity",
          "type": "uint256"
        }
      ],
      "name": "buyMedicine",
      "outputs": [],
      "payable": false,
      "stateMutability": "nonpayable",
      "type": "function"
    }
  ],
  "bytecode": "0x608060405234801561001057600080fd5b506040516040806107538339810180604052604081101561003057600080fd5b8101908080519060200190929190805190602001909291905050506040518060400160405280600b81526020017f50617261636574616d6f6c00000000000000000000000000000000000000000081525060009080519060200190610096929190610127565b5081600260006101000a81548173ffffffffffffffffffffffffffffffffffffffff021916908373ffffffffffffffffffffffffffffffffffffffff16021790555033600160006101000a81548173ffffffffffffffffffffffffffffffffffffffff021916908373ffffffffffffffffffffffffffffffffffffffff1602179055508060038190555050506101cc565b828054600181600116156101000203166002900490600052602060002090601f016020900481019282601f1061016857805160ff1916838001178555610196565b82800160010185558215610196579182015b8281111561019557825182559160200191906001019061017a565b5b5090506101a391906101a7565b5090565b6101c991905b808211156101c55760008160009055506001016101ad565b5090565b90565b610578806101db6000396000f3fe608060405234801561001057600080fd5b50600436106100415760003560e01c8063752ea76414610046578063b4a99a4e146100c9578063ecdce08c14610113575b600080fd5b61004e61016b565b6040518080602001828103825283818151815260200191508051906020019080838360005b8381101561008e578082015181840152602081019050610073565b50505050905090810190601f1680156100bb5780820380516001836020036101000a031916815260200191505b509250505060405180910390f35b6100d1610209565b604051808273ffffffffffffffffffffffffffffffffffffffff1673ffffffffffffffffffffffffffffffffffffffff16815260200191505060405180910390f35b6101696004803603606081101561012957600080fd5b81019080803573ffffffffffffffffffffffffffffffffffffffff169060200190929190803590602001909291908035906020019092919050505061022f565b005b60008054600181600116156101000203166002900480601f0160208091040260200160405190810160405280929190818152602001828054600181600116156101000203166002900480156102015780601f106101d657610100808354040283529160200191610201565b820191906000526020600020905b8154815290600101906020018083116101e457829003601f168201915b505050505081565b600160009054906101000a900473ffffffffffffffffffffffffffffffffffffffff1681565b600160009054906101000a900473ffffffffffffffffffffffffffffffffffffffff1673ffffffffffffffffffffffffffffffffffffffff163373ffffffffffffffffffffffffffffffffffffffff16146102d5576040517f08c379a000000000000000000000000000000000000000000000000000000000815260040180806020018281038252602181526020018061052c6021913960400191505060405180910390fd5b600083905060008173ffffffffffffffffffffffffffffffffffffffff1663a67479413386866003546040518563ffffffff1660e01b8152600401808573ffffffffffffffffffffffffffffffffffffffff1673ffffffffffffffffffffffffffffffffffffffff168152602001848152602001838152602001828152602001945050505050602060405180830381600087803b15801561037557600080fd5b505af1158015610389573d6000803e3d6000fd5b505050506040513d602081101561039f57600080fd5b810190808051906020019092919050505090506103bc84826103c3565b5050505050565b6000600260009054906101000a900473ffffffffffffffffffffffffffffffffffffffff1690508073ffffffffffffffffffffffffffffffffffffffff166371ec5e073385856040518463ffffffff1660e01b8152600401808473ffffffffffffffffffffffffffffffffffffffff1673ffffffffffffffffffffffffffffffffffffffff1681526020018381526020018281526020019350505050602060405180830381600087803b15801561047957600080fd5b505af115801561048d573d6000803e3d6000fd5b505050506040513d60208110156104a357600080fd5b8101908080519060200190929190505050610526576040517f08c379a00000000000000000000000000000000000000000000000000000000081526004018080602001828103825260198152602001807f556e7375636365737366756c6c205472616e73616374696f6e0000000000000081525060200191505060405180910390fd5b50505056fe4f6e6c79206f776e65722063616e2063616c6c20746869732066756e6374696f6ea165627a7a7230582042fdc534ca62f521d531da36b91adf74ce00e72637ff4a5f4813669be0644daf0029",
  "source": "pragma solidity ^0.5.0;\r\n\r\ncontract Admin{\r\n    uint public recordCount = 0;\r\n    bytes32 public hashedaccess;\r\n    string medName;\r\n    string manDate;\r\n    string expDate;\r\n    struct Record {\r\n        uint Recid;\r\n        address manufacturer;\r\n        uint med_id;\r\n        uint quantity;\r\n        bytes32 batchNo;\r\n        uint licenseMan;\r\n        uint licenseWhole;\r\n        string medName;\r\n        string manDate;\r\n        string expDate;\r\n    }\r\n\r\n    mapping(uint => Record) public records;\r\n    mapping(uint => bool) public licenseMans;\r\n    mapping(uint => bool) public licenseWho;\r\n    mapping(bytes32 => uint) public getrecids;\r\n    constructor() public {\r\n        licenseMans[1] = true;\r\n        licenseMans[2] = true;\r\n        licenseMans[3] = true;\r\n        \r\n        licenseWho[1] = true;\r\n        licenseWho[2] = true;\r\n        licenseWho[3] = true;\r\n    }\r\n\r\n    function addRecordToTable(address _manufacturer,uint _med_id,uint _quantity,uint _licenseMan,uint _licensewho,bytes32 _batchNo) public{\r\n        if(_licensewho == 0){\r\n        require(licenseMans[_licenseMan] == true, \"Invalid Manufacture License\");}\r\n        else{\r\n        require(licenseWho[_licensewho] == true, \"Invalid Wholesaler License\");\r\n        }//recordCount = recordCount + 1;\r\n        recordCount += 1;\r\n        records[recordCount] = Record(recordCount,_manufacturer,_med_id,_quantity,_batchNo,_licenseMan,_licensewho,medName,manDate,expDate);\r\n        hashedaccess = keccak256(abi.encodePacked(_manufacturer,_med_id));\r\n        getrecids[hashedaccess] = recordCount;\r\n    }\r\n\r\n    function addManufactureRecord(address _manufacturer,uint _med_id,uint _quantity,uint _licenseMan,uint _licenseWho, string calldata _medName,string calldata _manDate,string calldata _expDate) external returns(bytes32){\r\n        uint tempSecretx = block.timestamp;\r\n        bytes32 batchNo = keccak256(abi.encodePacked(_manufacturer,_med_id,_quantity, tempSecretx));\r\n        manDate = _manDate;\r\n        medName = _medName;\r\n        expDate = _expDate;\r\n        addRecordToTable(_manufacturer,_med_id,_quantity,_licenseMan,_licenseWho,batchNo);\r\n        return batchNo;\r\n    }\r\n    function WholesalerTransaction(address _manufacturer,address _wholesaler,uint _med_id,uint _quantity,uint _license) external returns(bytes32){\r\n        hashedaccess = keccak256(abi.encodePacked(_manufacturer,_med_id));\r\n        \r\n        uint test1 = getrecids[hashedaccess];\r\n        uint test = records[test1].quantity;\r\n        require( test >= _quantity,\"Medicines are out of stock\");\r\n        records[getrecids[hashedaccess]].quantity -= _quantity;\r\n        manDate = records[test1].manDate;\r\n        medName = records[test1].medName;\r\n        expDate = records[test1].expDate;\r\n        addRecordToTable(_wholesaler,_med_id,_quantity,0,_license,records[getrecids[hashedaccess]].batchNo);\r\n        return records[getrecids[hashedaccess]].batchNo ;\r\n    }\r\n    \r\n    function validate(address _wholesaler,uint _med_id,bytes32 _batchNo) external returns(bool){\r\n        hashedaccess = keccak256(abi.encodePacked(_wholesaler,_med_id));\r\n        return records[getrecids[hashedaccess]].batchNo == _batchNo ; \r\n    }\r\n    \r\n    function getnumberofWholsaleDealers(uint _med_id) external view returns(uint){\r\n        uint num=0;\r\n        for(uint i=1;i<=recordCount;i++){\r\n            if(records[i].licenseMan == 0)\r\n            num=num+1;\r\n        }\r\n        return num;\r\n    }\r\n    \r\n    function getWholeSale(uint _i) external view returns(uint,address,uint,string memory){\r\n        for(uint i=_i;i<=recordCount;i++){\r\n            if(records[i].licenseWhole != 0)\r\n            return (1,records[i].manufacturer,records[i].quantity,records[i].medName);\r\n        }\r\n        return(0,records[0].manufacturer,records[0].quantity,records[0].medName);\r\n    }\r\n}\r\n\r\n\r\ncontract Manufacture{\r\n    string public medicines;\r\n    address public Owner;\r\n    address Adminaddress;\r\n    uint license;\r\n    constructor(address _admin,uint _licenseMan) public {\r\n        medicines = \"Paracetamol\";\r\n        Adminaddress = _admin;\r\n        Owner = msg.sender;\r\n        license = _licenseMan;\r\n    }\r\n    modifier onlyOwner() {\r\n        require(msg.sender == Owner, \"Only owner can call this function\");\r\n        _;\r\n    }\r\n\r\n    function addMedicineRecord(uint _med_id,uint _quantity,string memory _medName,string memory _manDate,string memory _expDate) public onlyOwner{\r\n    Admin adminConnect = Admin(Adminaddress);\r\n    bytes32 batchNo = adminConnect.addManufactureRecord(msg.sender,_med_id,_quantity,license,0,_medName,_manDate,_expDate);\r\n    }\r\n    \r\n    function sellMedicine (address _wholesaler, uint _med_id, uint _quantity, uint _license) external returns(bytes32){\r\n        Admin adminConnect = Admin (Adminaddress);\r\n        return adminConnect.WholesalerTransaction(Owner,_wholesaler,_med_id,_quantity,_license);\r\n        \r\n    }\r\n    \r\n    \r\n}\r\n\r\ncontract Wholesaler{\r\n    string public medicines;\r\n    address public Owner;\r\n    address Adminaddress;\r\n    uint license;\r\n    constructor(address _admin, uint _license) public{\r\n        medicines = \"Paracetamol\";\r\n        Adminaddress = _admin;\r\n        Owner = msg.sender;\r\n        license = _license;\r\n    }\r\n    modifier onlyOwner() {\r\n        require(msg.sender == Owner, \"Only owner can call this function\");\r\n        _;\r\n    }\r\n    function validate(uint _med_id,bytes32 _batchNo) private {\r\n        Admin adm = Admin(Adminaddress);\r\n        require(adm.validate(msg.sender,_med_id,_batchNo),\"Unsuccessfull Transaction\");\r\n    }\r\n    function buyMedicine (address _manufacturer , uint _med_id,uint _quantity) public onlyOwner{\r\n        Manufacture Man = Manufacture(_manufacturer);\r\n        bytes32 hashedaccess = Man.sellMedicine(msg.sender,_med_id,_quantity,license);\r\n        validate(_med_id,hashedaccess);\r\n    }\r\n}\r\n\r\ncontract Customer{\r\n    address public Owner;\r\n    address Adminaddress;\r\n    uint i=1;\r\n    constructor(address _admin) public{\r\n        Adminaddress = _admin;\r\n        Owner = msg.sender;\r\n    }\r\n    modifier onlyOwner() {\r\n        require(msg.sender == Owner, \"Only owner can call this function\");\r\n        _;\r\n    }\r\n    \r\n    event wholesalerFound(address _wholesaler,uint _quantity,string medName);\r\n    \r\n    function getMedicines(uint _med_id) public onlyOwner{\r\n        Admin adm = Admin(Adminaddress);\r\n        uint num = adm.getnumberofWholsaleDealers(_med_id);\r\n        while(i<=num){\r\n            (uint a,address b,uint c,string memory d) = adm.getWholeSale(i);\r\n            if(a==0)\r\n            break;\r\n            i = i+1;\r\n            emit wholesalerFound(b,c,d);\r\n            \r\n        }\r\n        i=1;\r\n        \r\n    }\r\n}\r\n",
  "sourcePath": "C:/temp/temp_project/synergy/contracts/SupplyChain.sol",
  "compiler": {
    "name": "solc",
    "version": "0.5.8+commit.23d335f2.Emscripten.clang"
  },
  "schemaVersion": "3.0.16",
  "updatedAt": "2019-09-20T02:38:58.395Z",
  "devdoc": {
    "methods": {}
  },
  "userdoc": {
    "methods": {}
  }
}