{
  "contractName": "Wholesaler",
  "abi": [
    {
      "inputs": [
        {
          "internalType": "address",
          "name": "_admin",
          "type": "address"
        },
        {
          "internalType": "uint256",
          "name": "_license",
          "type": "uint256"
        }
      ],
      "payable": false,
      "stateMutability": "nonpayable",
      "type": "constructor"
    },
    {
      "constant": true,
      "inputs": [],
      "name": "Owner",
      "outputs": [
        {
          "internalType": "address",
          "name": "",
          "type": "address"
        }
      ],
      "payable": false,
      "stateMutability": "view",
      "type": "function"
    },
    {
      "constant": true,
      "inputs": [],
      "name": "medicines",
      "outputs": [
        {
          "internalType": "string",
          "name": "",
          "type": "string"
        }
      ],
      "payable": false,
      "stateMutability": "view",
      "type": "function"
    },
    {
      "constant": false,
      "inputs": [
        {
          "internalType": "address",
          "name": "_manufacturer",
          "type": "address"
        },
        {
          "internalType": "uint256",
          "name": "_med_id",
          "type": "uint256"
        },
        {
          "internalType": "uint256",
          "name": "_quantity",
          "type": "uint256"
        }
      ],
      "name": "buyMedicine",
      "outputs": [],
      "payable": false,
      "stateMutability": "nonpayable",
      "type": "function"
    }
  ],
  "bytecode": "0x60806040523480156200001157600080fd5b5060405162000adf38038062000adf8339818101604052620000379190810190620001f3565b6040518060400160405280600b81526020017f50617261636574616d6f6c000000000000000000000000000000000000000000815250600090805190602001906200008492919062000116565b5081600260006101000a81548173ffffffffffffffffffffffffffffffffffffffff021916908373ffffffffffffffffffffffffffffffffffffffff16021790555033600160006101000a81548173ffffffffffffffffffffffffffffffffffffffff021916908373ffffffffffffffffffffffffffffffffffffffff160217905550806003819055505050620002a6565b828054600181600116156101000203166002900490600052602060002090601f016020900481019282601f106200015957805160ff19168380011785556200018a565b828001600101855582156200018a579182015b82811115620001895782518255916020019190600101906200016c565b5b5090506200019991906200019d565b5090565b620001c291905b80821115620001be576000816000905550600101620001a4565b5090565b90565b600081519050620001d68162000272565b92915050565b600081519050620001ed816200028c565b92915050565b600080604083850312156200020757600080fd5b60006200021785828601620001c5565b92505060206200022a85828601620001dc565b9150509250929050565b6000620002418262000248565b9050919050565b600073ffffffffffffffffffffffffffffffffffffffff82169050919050565b6000819050919050565b6200027d8162000234565b81146200028957600080fd5b50565b620002978162000268565b8114620002a357600080fd5b50565b61082980620002b66000396000f3fe608060405234801561001057600080fd5b50600436106100415760003560e01c8063752ea76414610046578063b4a99a4e14610064578063ecdce08c14610082575b600080fd5b61004e61009e565b60405161005b9190610640565b60405180910390f35b61006c61013c565b60405161007991906105a9565b60405180910390f35b61009c600480360361009791908101906103ed565b610162565b005b60008054600181600116156101000203166002900480601f0160208091040260200160405190810160405280929190818152602001828054600181600116156101000203166002900480156101345780601f1061010957610100808354040283529160200191610134565b820191906000526020600020905b81548152906001019060200180831161011757829003601f168201915b505050505081565b600160009054906101000a900473ffffffffffffffffffffffffffffffffffffffff1681565b600160009054906101000a900473ffffffffffffffffffffffffffffffffffffffff1673ffffffffffffffffffffffffffffffffffffffff163373ffffffffffffffffffffffffffffffffffffffff16146101f2576040517f08c379a00000000000000000000000000000000000000000000000000000000081526004016101e990610662565b60405180910390fd5b600083905060008173ffffffffffffffffffffffffffffffffffffffff1663a67479413386866003546040518563ffffffff1660e01b815260040161023a94939291906105fb565b602060405180830381600087803b15801561025457600080fd5b505af1158015610268573d6000803e3d6000fd5b505050506040513d601f19601f8201168201806040525061028c9190810190610465565b9050610298848261029f565b5050505050565b6000600260009054906101000a900473ffffffffffffffffffffffffffffffffffffffff1690508073ffffffffffffffffffffffffffffffffffffffff166371ec5e073385856040518463ffffffff1660e01b8152600401610303939291906105c4565b602060405180830381600087803b15801561031d57600080fd5b505af1158015610331573d6000803e3d6000fd5b505050506040513d601f19601f82011682018060405250610355919081019061043c565b610394576040517f08c379a000000000000000000000000000000000000000000000000000000000815260040161038b90610682565b60405180910390fd5b505050565b6000813590506103a88161078a565b92915050565b6000815190506103bd816107a1565b92915050565b6000815190506103d2816107b8565b92915050565b6000813590506103e7816107cf565b92915050565b60008060006060848603121561040257600080fd5b600061041086828701610399565b9350506020610421868287016103d8565b9250506040610432868287016103d8565b9150509250925092565b60006020828403121561044e57600080fd5b600061045c848285016103ae565b91505092915050565b60006020828403121561047757600080fd5b6000610485848285016103c3565b91505092915050565b61049781610710565b82525050565b6104a6816106be565b82525050565b6104b5816106dc565b82525050565b60006104c6826106a2565b6104d081856106ad565b93506104e0818560208601610746565b6104e981610779565b840191505092915050565b60006105016021836106ad565b91507f4f6e6c79206f776e65722063616e2063616c6c20746869732066756e6374696f60008301527f6e000000000000000000000000000000000000000000000000000000000000006020830152604082019050919050565b60006105676019836106ad565b91507f556e7375636365737366756c6c205472616e73616374696f6e000000000000006000830152602082019050919050565b6105a381610706565b82525050565b60006020820190506105be600083018461049d565b92915050565b60006060820190506105d9600083018661048e565b6105e6602083018561059a565b6105f360408301846104ac565b949350505050565b6000608082019050610610600083018761048e565b61061d602083018661059a565b61062a604083018561059a565b610637606083018461059a565b95945050505050565b6000602082019050818103600083015261065a81846104bb565b905092915050565b6000602082019050818103600083015261067b816104f4565b9050919050565b6000602082019050818103600083015261069b8161055a565b9050919050565b600081519050919050565b600082825260208201905092915050565b60006106c9826106e6565b9050919050565b60008115159050919050565b6000819050919050565b600073ffffffffffffffffffffffffffffffffffffffff82169050919050565b6000819050919050565b600061071b82610722565b9050919050565b600061072d82610734565b9050919050565b600061073f826106e6565b9050919050565b60005b83811015610764578082015181840152602081019050610749565b83811115610773576000848401525b50505050565b6000601f19601f8301169050919050565b610793816106be565b811461079e57600080fd5b50565b6107aa816106d0565b81146107b557600080fd5b50565b6107c1816106dc565b81146107cc57600080fd5b50565b6107d881610706565b81146107e357600080fd5b5056fea365627a7a72315820f3aef5a23304e0d2dd459ee9dcf9628a5759d59e97054eab7614660b20eafe366c6578706572696d656e74616cf564736f6c634300050c0040",
  "source": "pragma solidity ^0.5.0;\npragma experimental ABIEncoderV2;\n\ncontract Admin{\n    uint public recordCount = 0;\n    bytes32 public hashedaccess;\n    string medName;\n    string manDate;\n    string expDate;\n    struct Record {\n        uint Recid;\n        address manufacturer;\n        uint med_id;\n        uint quantity;\n        bytes32 batchNo;\n        uint licenseMan;\n        uint licenseWhole;\n        string medName;\n        string manDate;\n        string expDate;\n    }\n\n    mapping(uint => Record) public records;\n    mapping(uint => bool) public licenseMans;\n    mapping(uint => bool) public licenseWho;\n    mapping(bytes32 => uint) public getrecids;\n    constructor() public {\n        licenseMans[1] = true;\n        licenseMans[2] = true;\n        licenseMans[3] = true;\n        \n        licenseWho[1] = true;\n        licenseWho[2] = true;\n        licenseWho[3] = true;\n    }\n\n    function addRecordToTable(address _manufacturer,uint _med_id,uint _quantity,uint _licenseMan,uint _licensewho,bytes32 _batchNo) public{\n        if(_licensewho == 0){\n        require(licenseMans[_licenseMan] == true, \"Invalid Manufacture License\");}\n        else{\n        require(licenseWho[_licensewho] == true, \"Invalid Wholesaler License\");\n        }//recordCount = recordCount + 1;\n        recordCount += 1;\n        records[recordCount] = Record(recordCount,_manufacturer,_med_id,_quantity,_batchNo,_licenseMan,_licensewho,medName,manDate,expDate);\n        hashedaccess = keccak256(abi.encodePacked(_manufacturer,_med_id));\n        getrecids[hashedaccess] = recordCount;\n    }\n\n    function sendManDetails(address _manufacturer) public returns (Record[] memory outArray_){\n        uint j = 0;\n        for (uint index = 0; index < recordCount; index++) {\n            if(records[index].manufacturer == _manufacturer){\n                outArray_[j] = records[index];\n                j = j+1;\n            }\n        }\n    }\n\n    function addManufactureRecord(address _manufacturer,uint _med_id,uint _quantity,uint _licenseMan,uint _licenseWho, string calldata _medName,string calldata _manDate,string calldata _expDate) external returns(bytes32){\n        uint tempSecretx = block.timestamp;\n        bytes32 batchNo = keccak256(abi.encodePacked(_manufacturer,_med_id,_quantity, tempSecretx));\n        manDate = _manDate;\n        medName = _medName;\n        expDate = _expDate;\n        addRecordToTable(_manufacturer,_med_id,_quantity,_licenseMan,_licenseWho,batchNo);\n        return batchNo;\n    }\n    function WholesalerTransaction(address _manufacturer,address _wholesaler,uint _med_id,uint _quantity,uint _license) external returns(bytes32){\n        hashedaccess = keccak256(abi.encodePacked(_manufacturer,_med_id));\n        \n        uint test1 = getrecids[hashedaccess];\n        uint test = records[test1].quantity;\n        require( test >= _quantity,\"Medicines are out of stock\");\n        records[getrecids[hashedaccess]].quantity -= _quantity;\n        manDate = records[test1].manDate;\n        medName = records[test1].medName;\n        expDate = records[test1].expDate;\n        addRecordToTable(_wholesaler,_med_id,_quantity,0,_license,records[getrecids[hashedaccess]].batchNo);\n        return records[getrecids[hashedaccess]].batchNo ;\n    }\n    \n    function validate(address _wholesaler,uint _med_id,bytes32 _batchNo) external returns(bool){\n        hashedaccess = keccak256(abi.encodePacked(_wholesaler,_med_id));\n        return records[getrecids[hashedaccess]].batchNo == _batchNo ; \n    }\n    \n    function getnumberofWholsaleDealers(uint _med_id) external view returns(uint){\n        uint num=0;\n        for(uint i=1;i<=recordCount;i++){\n            if(records[i].licenseMan == 0)\n            num=num+1;\n        }\n        return num;\n    }\n    \n    function getWholeSale(uint _i) external view returns(uint,address,uint,string memory){\n        for(uint i=_i;i<=recordCount;i++){\n            if(records[i].licenseWhole != 0)\n            return (1,records[i].manufacturer,records[i].quantity,records[i].medName);\n        }\n        return(0,records[0].manufacturer,records[0].quantity,records[0].medName);\n    }\n}\n\n\ncontract Manufacture{\n    string public medicines;\n    address public Owner;\n    address Adminaddress;\n    uint license;\n    constructor(address _admin,uint _licenseMan) public {\n        medicines = \"Paracetamol\";\n        Adminaddress = _admin;\n        Owner = msg.sender;\n        license = _licenseMan;\n    }\n    modifier onlyOwner() {\n        require(msg.sender == Owner, \"Only owner can call this function\");\n        _;\n    }\n\n    function addMedicineRecord(uint _med_id,uint _quantity,string memory _medName,string memory _manDate,string memory _expDate) public onlyOwner returns(bytes32){\n    Admin adminConnect = Admin(Adminaddress);\n    bytes32 batchNo = adminConnect.addManufactureRecord(msg.sender,_med_id,_quantity,license,0,_medName,_manDate,_expDate);\n    return batchNo;\n    }\n    \n    function sellMedicine (address _wholesaler, uint _med_id, uint _quantity, uint _license) external returns(bytes32){\n        Admin adminConnect = Admin (Adminaddress);\n        return adminConnect.WholesalerTransaction(Owner,_wholesaler,_med_id,_quantity,_license);\n        \n    }\n    \n    \n}\n\ncontract Wholesaler{\n    string public medicines;\n    address public Owner;\n    address Adminaddress;\n    uint license;\n    constructor(address _admin, uint _license) public{\n        medicines = \"Paracetamol\";\n        Adminaddress = _admin;\n        Owner = msg.sender;\n        license = _license;\n    }\n    modifier onlyOwner() {\n        require(msg.sender == Owner, \"Only owner can call this function\");\n        _;\n    }\n    function validate(uint _med_id,bytes32 _batchNo) private {\n        Admin adm = Admin(Adminaddress);\n        require(adm.validate(msg.sender,_med_id,_batchNo),\"Unsuccessfull Transaction\");\n    }\n    function buyMedicine (address _manufacturer , uint _med_id,uint _quantity) public onlyOwner{\n        Manufacture Man = Manufacture(_manufacturer);\n        bytes32 hashedaccess = Man.sellMedicine(msg.sender,_med_id,_quantity,license);\n        validate(_med_id,hashedaccess);\n    }\n}\n\ncontract Customer{\n    address public Owner;\n    address Adminaddress;\n    uint i=1;\n    constructor(address _admin) public{\n        Adminaddress = _admin;\n        Owner = msg.sender;\n    }\n    modifier onlyOwner() {\n        require(msg.sender == Owner, \"Only owner can call this function\");\n        _;\n    }\n    \n    event wholesalerFound(address _wholesaler,uint _quantity,string medName);\n    \n    function getMedicines(uint _med_id) public onlyOwner{\n        Admin adm = Admin(Adminaddress);\n        uint num = adm.getnumberofWholsaleDealers(_med_id);\n        while(i<=num){\n            (uint a,address b,uint c,string memory d) = adm.getWholeSale(i);\n            if(a==0)\n            break;\n            i = i+1;\n            emit wholesalerFound(b,c,d);\n            \n        }\n        i=1;\n        \n    }\n}\n",
  "sourcePath": "/home/abhishikta/7th_sem/webtech/medchain/contracts/SupplyChain.sol",
  "compiler": {
    "name": "solc",
    "version": "0.5.12+commit.7709ece9.Emscripten.clang"
  },
  "schemaVersion": "3.0.19",
  "updatedAt": "2019-11-20T17:31:04.902Z",
  "devdoc": {
    "methods": {}
  },
  "userdoc": {
    "methods": {}
  }
}